{
    "contractName": "GoAfrica",
    "abi": [
        {
            "anonymous": false,
            "inputs": [
                {
                    "indexed": false,
                    "internalType": "address",
                    "name": "contractAddress",
                    "type": "address"
                },
                {
                    "indexed": false,
                    "internalType": "address",
                    "name": "projectCreator",
                    "type": "address"
                },
                {
                    "indexed": false,
                    "internalType": "uint256",
                    "name": "ref",
                    "type": "uint256"
                },
                {
                    "indexed": false,
                    "internalType": "string",
                    "name": "title",
                    "type": "string"
                },
                {
                    "indexed": false,
                    "internalType": "uint256",
                    "name": "goalAmount",
                    "type": "uint256"
                }
            ],
            "name": "ProjectStarted",
            "type": "event"
        },
        {
            "inputs": [
                {
                    "internalType": "contract ITRC20",
                    "name": "trxToken",
                    "type": "address"
                },
                {
                    "internalType": "uint256",
                    "name": "projectRef",
                    "type": "uint256"
                },
                {
                    "internalType": "uint256",
                    "name": "projectGoalAmount",
                    "type": "uint256"
                },
                {
                    "internalType": "string",
                    "name": "projectTitle",
                    "type": "string"
                }
            ],
            "name": "createProject",
            "outputs": [
                {
                    "internalType": "contract Project",
                    "name": "",
                    "type": "address"
                }
            ],
            "stateMutability": "nonpayable",
            "type": "function"
        },
        {
            "inputs": [
                {
                    "internalType": "uint256",
                    "name": "projectId",
                    "type": "uint256"
                }
            ],
            "name": "getProjectById",
            "outputs": [
                {
                    "internalType": "contract Project",
                    "name": "proj",
                    "type": "address"
                },
                {
                    "internalType": "uint256",
                    "name": "projectRef",
                    "type": "uint256"
                },
                {
                    "internalType": "uint256",
                    "name": "goalAmount",
                    "type": "uint256"
                },
                {
                    "internalType": "uint256",
                    "name": "currentAmount",
                    "type": "uint256"
                },
                {
                    "internalType": "string",
                    "name": "title",
                    "type": "string"
                }
            ],
            "stateMutability": "view",
            "type": "function"
        },
        {
            "inputs": [
                {
                    "internalType": "address",
                    "name": "addr",
                    "type": "address"
                }
            ],
            "name": "getProjectInstance",
            "outputs": [
                {
                    "internalType": "contract Project",
                    "name": "",
                    "type": "address"
                }
            ],
            "stateMutability": "pure",
            "type": "function"
        },
        {
            "inputs": [
                {
                    "internalType": "uint256",
                    "name": "",
                    "type": "uint256"
                }
            ],
            "name": "projects",
            "outputs": [
                {
                    "internalType": "contract Project",
                    "name": "",
                    "type": "address"
                }
            ],
            "stateMutability": "view",
            "type": "function"
        },
        {
            "inputs": [],
            "name": "returnProjectsAddresses",
            "outputs": [
                {
                    "internalType": "contract Project[]",
                    "name": "",
                    "type": "address[]"
                }
            ],
            "stateMutability": "view",
            "type": "function"
        }
    ],
    "bytecode": "608060405234801561001057600080fd5b50612b34806100206000396000f3fe60806040523480156200001157600080fd5b50600436106200005e5760003560e01c8063107046bd1462000063578063bee5cdca1462000097578063c879f21d14620000c1578063c954e7ac14620000d5578063d3d83ead14620000ec575b600080fd5b6200007a6200007436600462000503565b62000105565b6040516001600160a01b0390911681526020015b60405180910390f35b620000ae620000a836600462000503565b62000130565b6040516200008e95949392919062000550565b6200007a620000d2366004620005c2565b90565b6200007a620000e6366004620005e9565b620003b2565b620000f662000491565b6040516200008e919062000686565b600081815481106200011657600080fd5b6000918252602090912001546001600160a01b0316905081565b600080600080606060005b600054811015620003a757600081815481106200015c576200015c620006d5565b9060005260206000200160009054906101000a90046001600160a01b0316955086866001600160a01b03166313a879776040518163ffffffff1660e01b8152600401602060405180830381865afa158015620001bc573d6000803e3d6000fd5b505050506040513d601f19601f82011682018060405250810190620001e29190620006eb565b03620003925785866001600160a01b03166313a879776040518163ffffffff1660e01b8152600401602060405180830381865afa15801562000228573d6000803e3d6000fd5b505050506040513d601f19601f820116820180604052508101906200024e9190620006eb565b876001600160a01b031663a533cb686040518163ffffffff1660e01b8152600401602060405180830381865afa1580156200028d573d6000803e3d6000fd5b505050506040513d601f19601f82011682018060405250810190620002b39190620006eb565b886001600160a01b031663515336c76040518163ffffffff1660e01b8152600401602060405180830381865afa158015620002f2573d6000803e3d6000fd5b505050506040513d601f19601f82011682018060405250810190620003189190620006eb565b896001600160a01b031663ff3c1a8f6040518163ffffffff1660e01b8152600401600060405180830381865afa15801562000357573d6000803e3d6000fd5b505050506040513d6000823e601f3d908101601f191682016040526200038191908101906200071b565b9550955095509550955050620003a9565b806200039e81620007d4565b9150506200013b565b505b91939590929450565b600080863387878787604051620003c990620004f5565b620003da9695949392919062000825565b604051809103906000f080158015620003f7573d6000803e3d6000fd5b50600080546001810182559080527f290decd9548b62a8d60345a988386fc84ba6bc95484008f6362f93160ef3e5630180546001600160a01b0319166001600160a01b0383161790556040519091507f39d2c97e7d7927c27d9e1470743a75382e42afabf1447cf9215e0817f5a60f22906200047f90839033908a90899089908c906200086e565b60405180910390a19695505050505050565b60606000805480602002602001604051908101604052809291908181526020018280548015620004eb57602002820191906000526020600020905b81546001600160a01b03168152600190910190602001808311620004cc575b5050505050905090565b61224780620008b883390190565b6000602082840312156200051657600080fd5b5035919050565b60005b838110156200053a57818101518382015260200162000520565b838111156200054a576000848401525b50505050565b60018060a01b038616815284602082015283604082015282606082015260a06080820152600082518060a0840152620005918160c08501602087016200051d565b601f01601f19169190910160c0019695505050505050565b6001600160a01b0381168114620005bf57600080fd5b50565b600060208284031215620005d557600080fd5b8135620005e281620005a9565b9392505050565b6000806000806000608086880312156200060257600080fd5b85356200060f81620005a9565b94506020860135935060408601359250606086013567ffffffffffffffff808211156200063b57600080fd5b818801915088601f8301126200065057600080fd5b8135818111156200066057600080fd5b8960208285010111156200067357600080fd5b9699959850939650602001949392505050565b6020808252825182820181905260009190848201906040850190845b81811015620006c95783516001600160a01b031683529284019291840191600101620006a2565b50909695505050505050565b634e487b7160e01b600052603260045260246000fd5b600060208284031215620006fe57600080fd5b5051919050565b634e487b7160e01b600052604160045260246000fd5b6000602082840312156200072e57600080fd5b815167ffffffffffffffff808211156200074757600080fd5b818401915084601f8301126200075c57600080fd5b81518181111562000771576200077162000705565b604051601f8201601f19908116603f011681019083821181831017156200079c576200079c62000705565b81604052828152876020848701011115620007b657600080fd5b620007c98360208301602088016200051d565b979650505050505050565b600060018201620007f557634e487b7160e01b600052601160045260246000fd5b5060010190565b81835281816020850137506000828201602090810191909152601f909101601f19169091010190565b6001600160a01b03878116825286166020820152604081018590526060810184905260a060808201819052600090620008629083018486620007fc565b98975050505050505050565b6001600160a01b038781168252861660208201526040810185905260a060608201819052600090620008a49083018587620007fc565b905082608083015297965050505050505056fe60806040526000805460ff191681556006553480156200001e57600080fd5b5060405162002247380380620022478339810160408190526200004191620000d5565b60008054610100600160a81b0319166101006001600160a01b0388811691909102919091178255600180546001600160a01b0319169187169190911790556002839055600355600483905560056200009a828262000283565b5050505050506200034f565b6001600160a01b0381168114620000bc57600080fd5b50565b634e487b7160e01b600052604160045260246000fd5b600080600080600060a08688031215620000ee57600080fd5b8551620000fb81620000a6565b809550506020808701516200011081620000a6565b6040880151606089015160808a015192975090955093506001600160401b03808211156200013d57600080fd5b818901915089601f8301126200015257600080fd5b815181811115620001675762000167620000bf565b604051601f8201601f19908116603f01168101908382118183101715620001925762000192620000bf565b816040528281528c86848701011115620001ab57600080fd5b600093505b82841015620001cf5784840186015181850187015292850192620001b0565b82841115620001e15760008684830101525b8096505050505050509295509295909350565b600181811c908216806200020957607f821691505b6020821081036200022a57634e487b7160e01b600052602260045260246000fd5b50919050565b601f8211156200027e57600081815260208120601f850160051c81016020861015620002595750805b601f850160051c820191505b818110156200027a5782815560010162000265565b5050505b505050565b81516001600160401b038111156200029f576200029f620000bf565b620002b781620002b08454620001f4565b8462000230565b602080601f831160018114620002ef5760008415620002d65750858301515b600019600386901b1c1916600185901b1785556200027a565b600085815260208120601f198616915b828110156200032057888601518255948401946001909101908401620002ff565b50858210156200033f5787850151600019600388901b60f8161c191681555b5050505050600190811b01905550565b611ee8806200035f6000396000f3fe60806040526004361061014b5760003560e01c8063a541a2a2116100b6578063d5091bf01161006f578063d5091bf01461037e578063dda0a81a14610393578063ea6928c1146103b7578063f8c14f03146103d9578063fbbf93a0146103ec578063ff3c1a8f1461041657600080fd5b8063a541a2a2146102a9578063a9e966b7146102e1578063bbccdf3914610301578063c19d93fb14610321578063c1af79a214610348578063ce845d1d1461036857600080fd5b806355e877961161010857806355e87796146101fa5780635faae9491461021c57806360c86bdc1461023e57806372910be014610254578063a14f7d3214610274578063a533cb681461029457600080fd5b806313a87977146101505780631a5eba211461017457806321a78f68146101975780632636b945146101ad5780634a79d50c146101c3578063515336c7146101e5575b600080fd5b34801561015c57600080fd5b506004545b6040519081526020015b60405180910390f35b610187610182366004611737565b61042b565b604051901515815260200161016b565b3480156101a357600080fd5b5061016160045481565b3480156101b957600080fd5b5061016160025481565b3480156101cf57600080fd5b506101d8610657565b60405161016b91906117d0565b3480156101f157600080fd5b50600354610161565b34801561020657600080fd5b5061020f6106e5565b60405161016b9190611876565b34801561022857600080fd5b5061023c610237366004611889565b6107f6565b005b34801561024a57600080fd5b5061016160065481565b34801561026057600080fd5b5061023c61026f3660046118a2565b610812565b34801561028057600080fd5b5061018761028f366004611900565b61083b565b3480156102a057600080fd5b50600254610161565b3480156102b557600080fd5b506001546102c9906001600160a01b031681565b6040516001600160a01b03909116815260200161016b565b3480156102ed57600080fd5b5061023c6102fc366004611889565b6109c2565b34801561030d57600080fd5b5061018761031c36600461195a565b610a22565b34801561032d57600080fd5b5060005461033b9060ff1681565b60405161016b91906119bc565b34801561035457600080fd5b506101876103633660046119ca565b610b71565b34801561037457600080fd5b5061016160035481565b34801561038a57600080fd5b5061023c610caa565b34801561039f57600080fd5b506103a8610cc5565b60405161016b93929190611aa7565b3480156103c357600080fd5b506103cc610de8565b60405161016b9190611b14565b6101876103e7366004611889565b610ef0565b3480156103f857600080fd5b50610401611244565b60405161016b99989796959493929190611b27565b34801561042257600080fd5b506101d861163d565b6000808060005460ff16600281111561044657610446611984565b1461046c5760405162461bcd60e51b815260040161046390611bb9565b60405180910390fd5b6002548560035461047d9190611c19565b11156104c55760405162461bcd60e51b815260206004820152601760248201527654686520616d6f756e7420697320746f6f20626967202160481b6044820152606401610463565b6000546040516323b872dd60e01b81523360048201523060248201523460448201526101009091046001600160a01b0316906323b872dd906064016020604051808303816000875af115801561051f573d6000803e3d6000fd5b505050506040513d601f19601f820116820180604052508101906105439190611c31565b506007604051806060016040528087815260200186868080601f0160208091040260200160405190810160405280939291908181526020018383808284376000920182905250938552505033602093840152508354600181810186559482529082902083516003909202019081559082015191929091908201906105c79082611ceb565b5060409190910151600290910180546001600160a01b0319166001600160a01b039092169190911790556003546105fe90866116cf565b600355610609610caa565b600354604080513381526020810188905280820192909252517fb1bd58229606cd4dec94cb51b41275ea217cfa548aac87d25510ea49595312e59181900360600190a1506001949350505050565b6005805461066490611c69565b80601f016020809104026020016040519081016040528092919081815260200182805461069090611c69565b80156106dd5780601f106106b2576101008083540402835291602001916106dd565b820191906000526020600020905b8154815290600101906020018083116106c057829003601f168201915b505050505081565b60606009805480602002602001604051908101604052809291908181526020016000905b828210156107ed57600084815260209081902060408051606081019091526003850290910180546001600160a01b03168252600181018054929391929184019161075290611c69565b80601f016020809104026020016040519081016040528092919081815260200182805461077e90611c69565b80156107cb5780601f106107a0576101008083540402835291602001916107cb565b820191906000526020600020905b8154815290600101906020018083116107ae57829003601f168201915b5050505050815260200160028201548152505081526020019060010190610709565b50505050905090565b6001546001600160a01b0316331461080d57600080fd5b600455565b6001546001600160a01b0316331461082957600080fd5b6005610836828483611dab565b505050565b6001546000906001600160a01b0316331461085557600080fd5b60035484111561086457600080fd5b60005460405163a9059cbb60e01b81526001600160a01b038781166004830152602482018790526101009092049091169063a9059cbb906044016020604051808303816000875af11580156108bd573d6000803e3d6000fd5b505050506040513d601f19601f820116820180604052508101906108e19190611c31565b156109b6576003546108f390856116e2565b60038190555060096040518060600160405280876001600160a01b0316815260200185858080601f0160208091040260200160405190810160405280939291908181526020018383808284376000920182905250938552505050602091820188905283546001808201865594825290829020835160039092020180546001600160a01b0319166001600160a01b039092169190911781559082015191929091908201906109a09082611ceb565b50604082015181600201555050600190506109ba565b5060005b949350505050565b6001546001600160a01b031633146109d957600080fd5b806000036109f75760008054819060ff19166001825b021790555050565b80600103610a1257600080546001919060ff191682806109ef565b506000805460ff19166002179055565b6001546000906001600160a01b03163314610a8b5760405162461bcd60e51b815260206004820152602360248201527f596f7520617265206e6f7420616c6c6f77656420746f2073656e64206d6f6e6560448201526279202160e81b6064820152608401610463565b600060035411610acd5760405162461bcd60e51b815260206004820152600d60248201526c4e6f206d6f7265206d6f6e657960981b6044820152606401610463565b60005460405163a9059cbb60e01b81526001600160a01b038581166004830152602482018590526101009092049091169063a9059cbb906044016020604051808303816000875af1158015610b26573d6000803e3d6000fd5b505050506040513d601f19601f82011682018060405250810190610b4a9190611c31565b15610b6757600354610b5c90836116e2565b600355506001610b6b565b5060005b92915050565b6001546000906001600160a01b03163314610b8b57600080fd5b60008511610b9857600080fd5b600354610ba590866116cf565b60038190555060086040518060600160405280846001600160a01b0316815260200186868080601f0160208091040260200160405190810160405280939291908181526020018383808284376000920182905250938552505050602091820189905283546001808201865594825290829020835160039092020180546001600160a01b0319166001600160a01b03909216919091178155908201519192909190820190610c529082611ceb565b50604091820151600290910155600354815133815260208101889052918201527fb1bd58229606cd4dec94cb51b41275ea217cfa548aac87d25510ea49595312e59060600160405180910390a1506001949350505050565b60025460035410610cc3576000805460ff191660011790555b565b6060600080600760035460025482805480602002602001604051908101604052809291908181526020016000905b82821015610dd7578382906000526020600020906003020160405180606001604052908160008201548152602001600182018054610d3090611c69565b80601f0160208091040260200160405190810160405280929190818152602001828054610d5c90611c69565b8015610da95780601f10610d7e57610100808354040283529160200191610da9565b820191906000526020600020905b815481529060010190602001808311610d8c57829003601f168201915b5050509183525050600291909101546001600160a01b03166020918201529082526001929092019101610cf3565b505050509250925092509250909192565b60606008805480602002602001604051908101604052809291908181526020016000905b828210156107ed57600084815260209081902060408051606081019091526003850290910180546001600160a01b031682526001810180549293919291840191610e5590611c69565b80601f0160208091040260200160405190810160405280929190818152602001828054610e8190611c69565b8015610ece5780601f10610ea357610100808354040283529160200191610ece565b820191906000526020600020905b815481529060010190602001808311610eb157829003601f168201915b5050505050815260200160028201548152505081526020019060010190610e0c565b6000808060005460ff166002811115610f0b57610f0b611984565b14610f285760405162461bcd60e51b815260040161046390611bb9565b60025483600354610f399190611c19565b1115610f815760405162461bcd60e51b815260206004820152601760248201527654686520616d6f756e7420697320746f6f20626967202160481b6044820152606401610463565b60006007805480602002602001604051908101604052809291908181526020016000905b82821015611089578382906000526020600020906003020160405180606001604052908160008201548152602001600182018054610fe290611c69565b80601f016020809104026020016040519081016040528092919081815260200182805461100e90611c69565b801561105b5780601f106110305761010080835404028352916020019161105b565b820191906000526020600020905b81548152906001019060200180831161103e57829003601f168201915b5050509183525050600291909101546001600160a01b03166020918201529082526001929092019101610fa5565b50505050905060008080600090505b83518110156110f557336001600160a01b03168482815181106110bd576110bd611e6c565b6020026020010151604001516001600160a01b0316036110e357600192508091506110f5565b806110ed81611e82565b915050611098565b508115611236576000546040516323b872dd60e01b8152336004820152306024820152604481018890526101009091046001600160a01b0316906323b872dd906064016020604051808303816000875af1158015611157573d6000803e3d6000fd5b505050506040513d601f19601f8201168201806040525081019061117b9190611c31565b506111aa866007838154811061119357611193611e6c565b6000918252602090912060039091020154906116cf565b600782815481106111bd576111bd611e6c565b6000918252602090912060039182020191909155546111dc90876116cf565b6003556111e7610caa565b600354604080513381526020810189905280820192909252517fb1bd58229606cd4dec94cb51b41275ea217cfa548aac87d25510ea49595312e59181900360600190a16001945050505061123e565b600094505050505b50919050565b600154600454600580546001600160a01b0390931692606091600091829182918591829182919061127490611c69565b80601f01602080910402602001604051908101604052809291908181526020018280546112a090611c69565b80156112ed5780601f106112c2576101008083540402835291602001916112ed565b820191906000526020600020905b8154815290600101906020018083116112d057829003601f168201915b5050505050965060008054906101000a900460ff169550600254945060035493506007805480602002602001604051908101604052809291908181526020016000905b8282101561141457838290600052602060002090600302016040518060600160405290816000820154815260200160018201805461136d90611c69565b80601f016020809104026020016040519081016040528092919081815260200182805461139990611c69565b80156113e65780601f106113bb576101008083540402835291602001916113e6565b820191906000526020600020905b8154815290600101906020018083116113c957829003601f168201915b5050509183525050600291909101546001600160a01b03166020918201529082526001929092019101611330565b5050505092506008805480602002602001604051908101604052809291908181526020016000905b8282101561152057600084815260209081902060408051606081019091526003850290910180546001600160a01b03168252600181018054929391929184019161148590611c69565b80601f01602080910402602001604051908101604052809291908181526020018280546114b190611c69565b80156114fe5780601f106114d3576101008083540402835291602001916114fe565b820191906000526020600020905b8154815290600101906020018083116114e157829003601f168201915b505050505081526020016002820154815250508152602001906001019061143c565b5050505091506009805480602002602001604051908101604052809291908181526020016000905b8282101561162c57600084815260209081902060408051606081019091526003850290910180546001600160a01b03168252600181018054929391929184019161159190611c69565b80601f01602080910402602001604051908101604052809291908181526020018280546115bd90611c69565b801561160a5780601f106115df5761010080835404028352916020019161160a565b820191906000526020600020905b8154815290600101906020018083116115ed57829003601f168201915b5050505050815260200160028201548152505081526020019060010190611548565b505050509050909192939495969798565b60606005805461164c90611c69565b80601f016020809104026020016040519081016040528092919081815260200182805461167890611c69565b80156116c55780601f1061169a576101008083540402835291602001916116c5565b820191906000526020600020905b8154815290600101906020018083116116a857829003601f168201915b5050505050905090565b60006116db8284611c19565b9392505050565b60006116db8284611e9b565b60008083601f84011261170057600080fd5b50813567ffffffffffffffff81111561171857600080fd5b60208301915083602082850101111561173057600080fd5b9250929050565b60008060006040848603121561174c57600080fd5b83359250602084013567ffffffffffffffff81111561176a57600080fd5b611776868287016116ee565b9497909650939450505050565b6000815180845260005b818110156117a95760208185018101518683018201520161178d565b818111156117bb576000602083870101525b50601f01601f19169290920160200192915050565b6020815260006116db6020830184611783565b60018060a01b038151168252600060208201516060602085015261180a6060850182611783565b604093840151949093019390935250919050565b600082825180855260208086019550808260051b84010181860160005b8481101561186957601f198684030189526118578383516117e3565b9884019892509083019060010161183b565b5090979650505050505050565b6020815260006116db602083018461181e565b60006020828403121561189b57600080fd5b5035919050565b600080602083850312156118b557600080fd5b823567ffffffffffffffff8111156118cc57600080fd5b6118d8858286016116ee565b90969095509350505050565b80356001600160a01b03811681146118fb57600080fd5b919050565b6000806000806060858703121561191657600080fd5b61191f856118e4565b935060208501359250604085013567ffffffffffffffff81111561194257600080fd5b61194e878288016116ee565b95989497509550505050565b6000806040838503121561196d57600080fd5b611976836118e4565b946020939093013593505050565b634e487b7160e01b600052602160045260246000fd5b600381106119b857634e487b7160e01b600052602160045260246000fd5b9052565b60208101610b6b828461199a565b600080600080606085870312156119e057600080fd5b84359350602085013567ffffffffffffffff8111156119fe57600080fd5b611a0a878288016116ee565b9094509250611a1d9050604086016118e4565b905092959194509250565b600081518084526020808501808196508360051b8101915082860160005b85811015611a9a5782840389528151606081518652868201518188880152611a7082880182611783565b6040938401516001600160a01b031697909301969096525098850198935090840190600101611a46565b5091979650505050505050565b606081526000611aba6060830186611a28565b60208301949094525060400152919050565b600081518084526020808501808196508360051b8101915082860160005b85811015611a9a578284038952611b028483516117e3565b98850198935090840190600101611aea565b6020815260006116db6020830184611acc565b6001600160a01b038a1681526020810189905261012060408201819052600090611b538382018b611783565b9050611b62606084018a61199a565b8760808401528660a084015282810360c0840152611b808187611a28565b905082810360e0840152611b948186611acc565b9050828103610100840152611ba9818561181e565b9c9b505050505050505050505050565b6020808252602a908201527f5468652070726f6a65637420676f616c20616d6f756e7420697320616c726561604082015269191e481c995858da195960b21b606082015260800190565b634e487b7160e01b600052601160045260246000fd5b60008219821115611c2c57611c2c611c03565b500190565b600060208284031215611c4357600080fd5b815180151581146116db57600080fd5b634e487b7160e01b600052604160045260246000fd5b600181811c90821680611c7d57607f821691505b60208210810361123e57634e487b7160e01b600052602260045260246000fd5b601f82111561083657600081815260208120601f850160051c81016020861015611cc45750805b601f850160051c820191505b81811015611ce357828155600101611cd0565b505050505050565b815167ffffffffffffffff811115611d0557611d05611c53565b611d1981611d138454611c69565b84611c9d565b602080601f831160018114611d4e5760008415611d365750858301515b600019600386901b1c1916600185901b178555611ce3565b600085815260208120601f198616915b82811015611d7d57888601518255948401946001909101908401611d5e565b5085821015611d9b5787850151600019600388901b60f8161c191681555b5050505050600190811b01905550565b67ffffffffffffffff831115611dc357611dc3611c53565b611dd783611dd18354611c69565b83611c9d565b6000601f841160018114611e0b5760008515611df35750838201355b600019600387901b1c1916600186901b178355611e65565b600083815260209020601f19861690835b82811015611e3c5786850135825560209485019460019092019101611e1c565b5086821015611e595760001960f88860031b161c19848701351681555b505060018560011b0183555b5050505050565b634e487b7160e01b600052603260045260246000fd5b600060018201611e9457611e94611c03565b5060010190565b600082821015611ead57611ead611c03565b50039056fea2646970667358221220a38343f6a32b6b51ce7c50b35e515916ee45daf26779a27d2f872877cc92e98064736f6c634300080f0033a264697066735822122095a062b8a78b7e15f1eb7882cf639737c9092776a10ac4c46c0bbdc0d88e01a764736f6c634300080f0033",
    "sourcePath": "/home/flashelperz/Documents/Code/Web/Solidity/tron-sc-test/contracts/GoAfrica.sol",
    "compiler": {
        "name": "solc",
        "version": "0.8.15+commit.e14f2714"
    },
    "functionHashes": {
        "createProject(address,uint256,uint256,string)": "c954e7ac",
        "getProjectById(uint256)": "bee5cdca",
        "getProjectInstance(address)": "c879f21d",
        "projects(uint256)": "107046bd",
        "returnProjectsAddresses()": "d3d83ead"
    },
    "gasEstimates": {
        "creation": {
            "codeDepositCost": "2212000",
            "executionCost": "2360",
            "totalCost": "2214360"
        },
        "external": {
            "createProject(address,uint256,uint256,string)": "infinite",
            "getProjectById(uint256)": "infinite",
            "getProjectInstance(address)": "376",
            "projects(uint256)": "4581",
            "returnProjectsAddresses()": "infinite"
        }
    }
}