{
  "contractName": "GoAfrica",
  "abi": [
    {
      "anonymous": false,
      "inputs": [
        {
          "indexed": false,
          "internalType": "address",
          "name": "contractAddress",
          "type": "address"
        },
        {
          "indexed": false,
          "internalType": "address",
          "name": "projectCreator",
          "type": "address"
        },
        {
          "indexed": false,
          "internalType": "uint256",
          "name": "ref",
          "type": "uint256"
        },
        {
          "indexed": false,
          "internalType": "string",
          "name": "title",
          "type": "string"
        },
        {
          "indexed": false,
          "internalType": "uint256",
          "name": "goalAmount",
          "type": "uint256"
        }
      ],
      "name": "ProjectStarted",
      "type": "event"
    },
    {
      "inputs": [
        {
          "internalType": "contract ITRC20",
          "name": "trxToken",
          "type": "address"
        },
        {
          "internalType": "uint256",
          "name": "projectRef",
          "type": "uint256"
        },
        {
          "internalType": "uint256",
          "name": "projectGoalAmount",
          "type": "uint256"
        },
        {
          "internalType": "string",
          "name": "projectTitle",
          "type": "string"
        }
      ],
      "name": "createProject",
      "outputs": [
        {
          "internalType": "contract Project",
          "name": "",
          "type": "address"
        }
      ],
      "stateMutability": "nonpayable",
      "type": "function"
    },
    {
      "inputs": [
        {
          "internalType": "uint256",
          "name": "projectRef",
          "type": "uint256"
        }
      ],
      "name": "getProjectByRef",
      "outputs": [
        {
          "internalType": "contract Project",
          "name": "proj",
          "type": "address"
        },
        {
          "internalType": "uint256",
          "name": "ref",
          "type": "uint256"
        },
        {
          "internalType": "uint256",
          "name": "goalAmount",
          "type": "uint256"
        },
        {
          "internalType": "uint256",
          "name": "currentAmount",
          "type": "uint256"
        },
        {
          "internalType": "string",
          "name": "title",
          "type": "string"
        }
      ],
      "stateMutability": "view",
      "type": "function"
    },
    {
      "inputs": [
        {
          "internalType": "uint256",
          "name": "projectRef",
          "type": "uint256"
        }
      ],
      "name": "getprojectAddress",
      "outputs": [
        {
          "internalType": "contract Project",
          "name": "project",
          "type": "address"
        }
      ],
      "stateMutability": "view",
      "type": "function"
    },
    {
      "inputs": [
        {
          "internalType": "uint256",
          "name": "",
          "type": "uint256"
        }
      ],
      "name": "projects",
      "outputs": [
        {
          "internalType": "contract Project",
          "name": "",
          "type": "address"
        }
      ],
      "stateMutability": "view",
      "type": "function"
    },
    {
      "inputs": [],
      "name": "returnProjectsAddresses",
      "outputs": [
        {
          "internalType": "contract Project[]",
          "name": "",
          "type": "address[]"
        }
      ],
      "stateMutability": "view",
      "type": "function"
    }
  ],
  "bytecode": "0x608060405234801561001057600080fd5b50d3801561001d57600080fd5b50d2801561002a57600080fd5b506135338061003a6000396000f3fe60806040523480156200001157600080fd5b50d380156200001f57600080fd5b50d280156200002d57600080fd5b50600436106200007a5760003560e01c8063107046bd146200007f5780632e6e7fe514620000b3578063c954e7ac14620000dd578063d3d83ead14620000f4578063e07d236f146200010d575b600080fd5b6200009662000090366004620007c0565b62000124565b6040516001600160a01b0390911681526020015b60405180910390f35b620000ca620000c4366004620007c0565b6200014f565b604051620000aa959493929190620008fe565b62000096620000ee36600462000656565b62000422565b620000fe62000501565b604051620000aa919062000866565b620000966200011e366004620007c0565b62000565565b600081815481106200013557600080fd5b6000918252602090912001546001600160a01b0316905081565b600080600080606060005b6000548110156200041757600081815481106200017b576200017b620009b4565b9060005260206000200160009054906101000a90046001600160a01b0316955086866001600160a01b03166313a879776040518163ffffffff1660e01b815260040160206040518083038186803b158015620001d657600080fd5b505afa158015620001eb573d6000803e3d6000fd5b505050506040513d601f19601f82011682018060405250810190620002119190620007da565b1415620004025785866001600160a01b03166313a879776040518163ffffffff1660e01b815260040160206040518083038186803b1580156200025357600080fd5b505afa15801562000268573d6000803e3d6000fd5b505050506040513d601f19601f820116820180604052508101906200028e9190620007da565b876001600160a01b031663a533cb686040518163ffffffff1660e01b815260040160206040518083038186803b158015620002c857600080fd5b505afa158015620002dd573d6000803e3d6000fd5b505050506040513d601f19601f82011682018060405250810190620003039190620007da565b886001600160a01b031663515336c76040518163ffffffff1660e01b815260040160206040518083038186803b1580156200033d57600080fd5b505afa15801562000352573d6000803e3d6000fd5b505050506040513d601f19601f82011682018060405250810190620003789190620007da565b896001600160a01b031663fe21b80c6040518163ffffffff1660e01b815260040160006040518083038186803b158015620003b257600080fd5b505afa158015620003c7573d6000803e3d6000fd5b505050506040513d6000823e601f3d908101601f19168201604052620003f1919081019062000707565b955095509550955095505062000419565b806200040e816200098a565b9150506200015a565b505b91939590929450565b600080863387878787604051620004399062000648565b6200044a96959493929190620008b5565b604051809103906000f08015801562000467573d6000803e3d6000fd5b50600080546001810182559080527f290decd9548b62a8d60345a988386fc84ba6bc95484008f6362f93160ef3e5630180546001600160a01b0319166001600160a01b0383161790556040519091507f39d2c97e7d7927c27d9e1470743a75382e42afabf1447cf9215e0817f5a60f2290620004ef90839033908a90899089908c906200081d565b60405180910390a19695505050505050565b606060008054806020026020016040519081016040528092919081815260200182805480156200055b57602002820191906000526020600020905b81546001600160a01b031681526001909101906020018083116200053c575b5050505050905090565b6000805b6000548110156200064257600081815481106200058a576200058a620009b4565b9060005260206000200160009054906101000a90046001600160a01b0316915082826001600160a01b03166313a879776040518163ffffffff1660e01b815260040160206040518083038186803b158015620005e557600080fd5b505afa158015620005fa573d6000803e3d6000fd5b505050506040513d601f19601f82011682018060405250810190620006209190620007da565b14156200062d5750919050565b8062000639816200098a565b91505062000569565b50919050565b612b1d80620009e183390190565b6000806000806000608086880312156200066f57600080fd5b85356001600160a81b03811681146200068757600080fd5b6001600160a01b031694506020860135935060408601359250606086013567ffffffffffffffff80821115620006bc57600080fd5b818801915088601f830112620006d157600080fd5b813581811115620006e157600080fd5b896020828501011115620006f457600080fd5b9699959850939650602001949392505050565b6000602082840312156200071a57600080fd5b815167ffffffffffffffff808211156200073357600080fd5b818401915084601f8301126200074857600080fd5b8151818111156200075d576200075d620009ca565b604051601f8201601f19908116603f01168101908382118183101715620007885762000788620009ca565b81604052828152876020848701011115620007a257600080fd5b620007b583602083016020880162000957565b979650505050505050565b600060208284031215620007d357600080fd5b5035919050565b600060208284031215620007ed57600080fd5b5051919050565b81835281816020850137506000828201602090810191909152601f909101601f19169091010190565b6001600160a01b038781168252861660208201526040810185905260a060608201819052600090620008539083018587620007f4565b9050826080830152979650505050505050565b6020808252825182820181905260009190848201906040850190845b81811015620008a95783516001600160a01b03168352928401929184019160010162000882565b50909695505050505050565b6001600160a01b03878116825286166020820152604081018590526060810184905260a060808201819052600090620008f29083018486620007f4565b98975050505050505050565b60018060a01b038616815284602082015283604082015282606082015260a06080820152600082518060a08401526200093f8160c085016020870162000957565b601f01601f19169190910160c0019695505050505050565b60005b83811015620009745781810151838201526020016200095a565b8381111562000984576000848401525b50505050565b6000600019821415620009ad57634e487b7160e01b600052601160045260246000fd5b5060010190565b634e487b7160e01b600052603260045260246000fd5b634e487b7160e01b600052604160045260246000fdfe60806040526000805460ff191681556006553480156200001e57600080fd5b50d380156200002c57600080fd5b50d280156200003a57600080fd5b5060405162002b1d38038062002b1d8339810160408190526200005d916200016f565b60008054610100600160a81b0319166101006001600160a01b0388811691909102919091178255600180546001600160a01b031916918716919091179055600283905560035560048390558051620000bd906005906020840190620000c9565b50505050505062000308565b828054620000d7906200029c565b90600052602060002090601f016020900481019282620000fb576000855562000146565b82601f106200011657805160ff191683800117855562000146565b8280016001018555821562000146579182015b828111156200014657825182559160200191906001019062000129565b506200015492915062000158565b5090565b5b8082111562000154576000815560010162000159565b600080600080600060a086880312156200018857600080fd5b85516200019581620002ef565b6020878101516001600160a01b039283169750909190620001b681620002ef565b604089015160608a015160808b0151939092169750955093506001600160401b0380821115620001e557600080fd5b818901915089601f830112620001fa57600080fd5b8151818111156200020f576200020f620002d9565b604051601f8201601f19908116603f011681019083821181831017156200023a576200023a620002d9565b816040528281528c868487010111156200025357600080fd5b600093505b8284101562000277578484018601518185018701529285019262000258565b82841115620002895760008684830101525b8096505050505050509295509295909350565b600181811c90821680620002b157607f821691505b60208210811415620002d357634e487b7160e01b600052602260045260246000fd5b50919050565b634e487b7160e01b600052604160045260246000fd5b6001600160a81b03811681146200030557600080fd5b50565b61280580620003186000396000f3fe6080604052600436106101665760003560e01c8063a541a2a2116100d1578063c19d93fb1161008a578063dda0a81a11610064578063dda0a81a146105cf578063ea6928c11461060d578063fbbf93a014610649578063fe21b80c1461068d57600080fd5b8063c19d93fb1461052f578063ce845d1d14610570578063d5091bf0146105a057600080fd5b8063a541a2a214610409578063a6f6c26c1461045b578063a9e966b714610495578063ae2023ed146104cf578063b19af9aa146104e2578063bbccdf39146104f557600080fd5b80635faae949116101235780635faae949146102be57806360c86bdc146102fa57806361ec69cd1461032a578063705d715714610364578063a2d1990c1461039e578063a533cb68146103da57600080fd5b806313a879771461016b57806321a78f68146101a95780632636b945146101d9578063515336c71461020957806354cf68941461023857806355e8779614610282575b600080fd5b34801561017757600080fd5b50d3801561018457600080fd5b50d2801561019157600080fd5b506004545b6040519081526020015b60405180910390f35b3480156101b557600080fd5b50d380156101c257600080fd5b50d280156101cf57600080fd5b5061019660045481565b3480156101e557600080fd5b50d380156101f257600080fd5b50d280156101ff57600080fd5b5061019660025481565b34801561021557600080fd5b50d3801561022257600080fd5b50d2801561022f57600080fd5b50600354610196565b34801561024457600080fd5b50d3801561025157600080fd5b50d2801561025e57600080fd5b5061027261026d366004612357565b6106bc565b60405190151581526020016101a0565b34801561028e57600080fd5b50d3801561029b57600080fd5b50d280156102a857600080fd5b506102b161071a565b6040516101a09190612657565b3480156102ca57600080fd5b50d380156102d757600080fd5b50d280156102e457600080fd5b506102f86102f3366004612357565b6108be565b005b34801561030657600080fd5b50d3801561031357600080fd5b50d2801561032057600080fd5b5061019660065481565b34801561033657600080fd5b50d3801561034357600080fd5b50d2801561035057600080fd5b5061027261035f366004612248565b6108da565b34801561037057600080fd5b50d3801561037d57600080fd5b50d2801561038a57600080fd5b50610272610399366004612248565b610b6d565b3480156103aa57600080fd5b50d380156103b757600080fd5b50d280156103c457600080fd5b506103cd610cf8565b6040516101a0919061269d565b3480156103e657600080fd5b50d380156103f357600080fd5b50d2801561040057600080fd5b50600254610196565b34801561041557600080fd5b50d3801561042257600080fd5b50d2801561042f57600080fd5b50600154610443906001600160a01b031681565b6040516001600160a01b0390911681526020016101a0565b34801561046757600080fd5b50d3801561047457600080fd5b50d2801561048157600080fd5b506102f8610490366004612206565b610d86565b3480156104a157600080fd5b50d380156104ae57600080fd5b50d280156104bb57600080fd5b506102f86104ca366004612357565b610dae565b6102726104dd366004612370565b610e0d565b6102726104f03660046122d4565b61126d565b34801561050157600080fd5b50d3801561050e57600080fd5b50d2801561051b57600080fd5b5061027261052a3660046121bf565b611504565b34801561053b57600080fd5b50d3801561054857600080fd5b50d2801561055557600080fd5b506000546105639060ff1681565b6040516101a0919061268f565b34801561057c57600080fd5b50d3801561058957600080fd5b50d2801561059657600080fd5b5061019660035481565b3480156105ac57600080fd5b50d380156105b957600080fd5b50d280156105c657600080fd5b506102f861165a565b3480156105db57600080fd5b50d380156105e857600080fd5b50d280156105f557600080fd5b506105fe611675565b6040516101a09392919061266a565b34801561061957600080fd5b50d3801561062657600080fd5b50d2801561063357600080fd5b5061063c611837565b6040516101a09190612644565b34801561065557600080fd5b50d3801561066257600080fd5b50d2801561066f57600080fd5b506106786119d2565b6040516101a0999897969594939291906125b2565b34801561069957600080fd5b50d380156106a657600080fd5b50d280156106b357600080fd5b506103cd611f90565b6000805b6007548110156107115782600782815481106106de576106de6127ab565b90600052602060002090600502016001015414156106ff5750600192915050565b8061070981612764565b9150506106c0565b50600092915050565b60606009805480602002602001604051908101604052809291908181526020016000905b828210156108b5578382906000526020600020906004020160405180608001604052908160008201805461077190612729565b80601f016020809104026020016040519081016040528092919081815260200182805461079d90612729565b80156107ea5780601f106107bf576101008083540402835291602001916107ea565b820191906000526020600020905b8154815290600101906020018083116107cd57829003601f168201915b505050918352505060018201546001600160a01b0316602082015260028201805460409092019161081a90612729565b80601f016020809104026020016040519081016040528092919081815260200182805461084690612729565b80156108935780601f1061086857610100808354040283529160200191610893565b820191906000526020600020905b81548152906001019060200180831161087657829003601f168201915b505050505081526020016003820154815250508152602001906001019061073e565b50505050905090565b6001546001600160a01b031633146108d557600080fd5b600455565b6001546000906001600160a01b0316331461094c5760405162461bcd60e51b815260206004820152602760248201527f4f6e6c792070726f6a6563742063726561746f722063616e206d616b6520612060448201526618d85cda1bdd5d60ca1b60648201526084015b60405180910390fd5b6003548211156109af5760405162461bcd60e51b815260206004820152602860248201527f596f752063616e2072656d6f7665206d6f7265207468616e2063757272656e746044820152672062616c616e636560c01b6064820152608401610943565b60005460405163a9059cbb60e01b81526001600160a01b038781166004830152602482018590526101009092049091169063a9059cbb90604401602060405180830381600087803b158015610a0357600080fd5b505af1158015610a17573d6000803e3d6000fd5b505050506040513d601f19601f82011682018060405250810190610a3b91906121e9565b15610b5f57600354610a4d9083612022565b6003556040805160a06020601f8a018190040282018101909252608081018881526009928291908b908b90819085018382808284376000920191909152505050908252506001600160a01b03881660208083019190915260408051601f8901839004830281018301825288815292019190889088908190840183828082843760009201829052509385525050506020918201869052835460018101855593815281902082518051939460040290910192610b0a9284920190612041565b506020828101516001830180546001600160a01b0319166001600160a01b0390921691909117905560408301518051610b499260028501920190612041565b5060608201518160030155505060019050610b63565b5060005b9695505050505050565b6001546000906001600160a01b03163314610b8757600080fd5b60008211610b9457600080fd5b600354610ba19083612035565b6003556040805160a06020601f8a018190040282018101909252608081018881526008928291908b908b90819085018382808284376000920191909152505050908252506001600160a01b03881660208083019190915260408051601f8901839004830281018301825288815292019190889088908190840183828082843760009201829052509385525050506020918201869052835460018101855593815281902082518051939460040290910192610c5e9284920190612041565b506020828101516001830180546001600160a01b0319166001600160a01b0390921691909117905560408301518051610c9d9260028501920190612041565b50606091820151600391820155546040805133815260208101869052908101919091527fb1bd58229606cd4dec94cb51b41275ea217cfa548aac87d25510ea49595312e5910160405180910390a15060019695505050505050565b60058054610d0590612729565b80601f0160208091040260200160405190810160405280929190818152602001828054610d3190612729565b8015610d7e5780601f10610d5357610100808354040283529160200191610d7e565b820191906000526020600020905b815481529060010190602001808311610d6157829003601f168201915b505050505081565b6001546001600160a01b03163314610d9d57600080fd5b610da9600583836120c5565b505050565b6001546001600160a01b03163314610dc557600080fd5b80610de05760008054819060ff19166001825b021790555050565b8060011415610dfc57600080546001919060ff19168280610dd8565b6000805460ff191660021790555b50565b6000808060005460ff166002811115610e2857610e28612795565b14610e455760405162461bcd60e51b8152600401610943906126b0565b60025485600354610e5691906126fa565b1115610e9e5760405162461bcd60e51b815260206004820152601760248201527654686520616d6f756e7420697320746f6f20626967202160481b6044820152606401610943565b60006007805480602002602001604051908101604052809291908181526020016000905b8282101561104557838290600052602060002090600502016040518060a0016040529081600082018054610ef590612729565b80601f0160208091040260200160405190810160405280929190818152602001828054610f2190612729565b8015610f6e5780601f10610f4357610100808354040283529160200191610f6e565b820191906000526020600020905b815481529060010190602001808311610f5157829003601f168201915b5050505050815260200160018201548152602001600282018054610f9190612729565b80601f0160208091040260200160405190810160405280929190818152602001828054610fbd90612729565b801561100a5780601f10610fdf5761010080835404028352916020019161100a565b820191906000526020600020905b815481529060010190602001808311610fed57829003601f168201915b505050918352505060038201546001600160a01b03166020808301919091526004909201546040909101529082526001929092019101610ec2565b50505050905060008080600090505b83518110156110b257876001600160a01b0316848281518110611079576110796127ab565b6020026020010151606001516001600160a01b031614156110a057600192508091506110b2565b806110aa81612764565b915050611054565b50811561125d576000546040516323b872dd60e01b8152336004820152306024820152604481018a90526101009091046001600160a01b0316906323b872dd90606401602060405180830381600087803b15801561110f57600080fd5b505af1158015611123573d6000803e3d6000fd5b505050506040513d601f19601f8201168201806040525081019061114791906121e9565b5061117f886007838154811061115f5761115f6127ab565b90600052602060002090600502016004015461203590919063ffffffff16565b60078281548110611192576111926127ab565b60009182526020909120600460059092020101556003546111b39089612035565b60035585156112065733600782815481106111d0576111d06127ab565b906000526020600020906005020160030160006101000a8154816001600160a01b0302191690836001600160a01b031602179055505b61120e61165a565b60035460408051338152602081018b905280820192909252517fb1bd58229606cd4dec94cb51b41275ea217cfa548aac87d25510ea49595312e59181900360600190a160019450505050611265565b600094505050505b509392505050565b6000808060005460ff16600281111561128857611288612795565b146112a55760405162461bcd60e51b8152600401610943906126b0565b600254856003546112b691906126fa565b11156112fe5760405162461bcd60e51b815260206004820152601760248201527654686520616d6f756e7420697320746f6f20626967202160481b6044820152606401610943565b6000546040516323b872dd60e01b81523360048201523060248201523460448201526101009091046001600160a01b0316906323b872dd90606401602060405180830381600087803b15801561135357600080fd5b505af1158015611367573d6000803e3d6000fd5b505050506040513d601f19601f8201168201806040525081019061138b91906121e9565b506040805160c06020601f8b01819004028201810190925260a081018981526007928291908c908c908190850183828082843760009201919091525050509082525060208082018a905260408051601f89018390048302810183018252888152920191908890889081908401838280828437600092018290525093855250503360208085019190915260409093018a9052508354600181018555938152819020825180519394600502909101926114459284920190612041565b506020828101516001830155604083015180516114689260028501920190612041565b506060820151600382810180546001600160a01b0319166001600160a01b0390931692909217909155608090920151600490910155546114a89086612035565b6003556114b361165a565b600354604080513381526020810188905280820192909252517fb1bd58229606cd4dec94cb51b41275ea217cfa548aac87d25510ea49595312e59181900360600190a1506001979650505050505050565b6001546000906001600160a01b0316331461156d5760405162461bcd60e51b815260206004820152602360248201527f596f7520617265206e6f7420616c6c6f77656420746f2073656e64206d6f6e6560448201526279202160e81b6064820152608401610943565b6000600354116115af5760405162461bcd60e51b815260206004820152600d60248201526c4e6f206d6f7265206d6f6e657960981b6044820152606401610943565b60005460405163a9059cbb60e01b81526001600160a01b038581166004830152602482018590526101009092049091169063a9059cbb90604401602060405180830381600087803b15801561160357600080fd5b505af1158015611617573d6000803e3d6000fd5b505050506040513d601f19601f8201168201806040525081019061163b91906121e9565b156107115760035461164d9083612022565b6003555060015b92915050565b60025460035410611673576000805460ff191660011790555b565b6060600080600760035460025482805480602002602001604051908101604052809291908181526020016000905b8282101561182657838290600052602060002090600502016040518060a00160405290816000820180546116d690612729565b80601f016020809104026020016040519081016040528092919081815260200182805461170290612729565b801561174f5780601f106117245761010080835404028352916020019161174f565b820191906000526020600020905b81548152906001019060200180831161173257829003601f168201915b505050505081526020016001820154815260200160028201805461177290612729565b80601f016020809104026020016040519081016040528092919081815260200182805461179e90612729565b80156117eb5780601f106117c0576101008083540402835291602001916117eb565b820191906000526020600020905b8154815290600101906020018083116117ce57829003601f168201915b505050918352505060038201546001600160a01b031660208083019190915260049092015460409091015290825260019290920191016116a3565b505050509250925092509250909192565b60606008805480602002602001604051908101604052809291908181526020016000905b828210156108b5578382906000526020600020906004020160405180608001604052908160008201805461188e90612729565b80601f01602080910402602001604051908101604052809291908181526020018280546118ba90612729565b80156119075780601f106118dc57610100808354040283529160200191611907565b820191906000526020600020905b8154815290600101906020018083116118ea57829003601f168201915b505050918352505060018201546001600160a01b0316602082015260028201805460409092019161193790612729565b80601f016020809104026020016040519081016040528092919081815260200182805461196390612729565b80156119b05780601f10611985576101008083540402835291602001916119b0565b820191906000526020600020905b81548152906001019060200180831161199357829003601f168201915b505050505081526020016003820154815250508152602001906001019061185b565b600154600454600580546001600160a01b03909316926060916000918291829185918291829190611a0290612729565b80601f0160208091040260200160405190810160405280929190818152602001828054611a2e90612729565b8015611a7b5780601f10611a5057610100808354040283529160200191611a7b565b820191906000526020600020905b815481529060010190602001808311611a5e57829003601f168201915b5050505050965060008054906101000a900460ff169550600254945060035493506007805480602002602001604051908101604052809291908181526020016000905b82821015611c4157838290600052602060002090600502016040518060a0016040529081600082018054611af190612729565b80601f0160208091040260200160405190810160405280929190818152602001828054611b1d90612729565b8015611b6a5780601f10611b3f57610100808354040283529160200191611b6a565b820191906000526020600020905b815481529060010190602001808311611b4d57829003601f168201915b5050505050815260200160018201548152602001600282018054611b8d90612729565b80601f0160208091040260200160405190810160405280929190818152602001828054611bb990612729565b8015611c065780601f10611bdb57610100808354040283529160200191611c06565b820191906000526020600020905b815481529060010190602001808311611be957829003601f168201915b505050918352505060038201546001600160a01b03166020808301919091526004909201546040909101529082526001929092019101611abe565b5050505092506008805480602002602001604051908101604052809291908181526020016000905b82821015611de05783829060005260206000209060040201604051806080016040529081600082018054611c9c90612729565b80601f0160208091040260200160405190810160405280929190818152602001828054611cc890612729565b8015611d155780601f10611cea57610100808354040283529160200191611d15565b820191906000526020600020905b815481529060010190602001808311611cf857829003601f168201915b505050918352505060018201546001600160a01b03166020820152600282018054604090920191611d4590612729565b80601f0160208091040260200160405190810160405280929190818152602001828054611d7190612729565b8015611dbe5780601f10611d9357610100808354040283529160200191611dbe565b820191906000526020600020905b815481529060010190602001808311611da157829003601f168201915b5050505050815260200160038201548152505081526020019060010190611c69565b5050505091506009805480602002602001604051908101604052809291908181526020016000905b82821015611f7f5783829060005260206000209060040201604051806080016040529081600082018054611e3b90612729565b80601f0160208091040260200160405190810160405280929190818152602001828054611e6790612729565b8015611eb45780601f10611e8957610100808354040283529160200191611eb4565b820191906000526020600020905b815481529060010190602001808311611e9757829003601f168201915b505050918352505060018201546001600160a01b03166020820152600282018054604090920191611ee490612729565b80601f0160208091040260200160405190810160405280929190818152602001828054611f1090612729565b8015611f5d5780601f10611f3257610100808354040283529160200191611f5d565b820191906000526020600020905b815481529060010190602001808311611f4057829003601f168201915b5050505050815260200160038201548152505081526020019060010190611e08565b505050509050909192939495969798565b606060058054611f9f90612729565b80601f0160208091040260200160405190810160405280929190818152602001828054611fcb90612729565b80156120185780601f10611fed57610100808354040283529160200191612018565b820191906000526020600020905b815481529060010190602001808311611ffb57829003601f168201915b5050505050905090565b600061202e8284612712565b9392505050565b600061202e82846126fa565b82805461204d90612729565b90600052602060002090601f01602090048101928261206f57600085556120b5565b82601f1061208857805160ff19168380011785556120b5565b828001600101855582156120b5579182015b828111156120b557825182559160200191906001019061209a565b506120c1929150612139565b5090565b8280546120d190612729565b90600052602060002090601f0160209004810192826120f357600085556120b5565b82601f1061210c5782800160ff198235161785556120b5565b828001600101855582156120b5579182015b828111156120b557823582559160200191906001019061211e565b5b808211156120c1576000815560010161213a565b600081356001600160a81b038116811461216757600080fd5b6001600160a01b031692915050565b60008083601f84011261218857600080fd5b50813567ffffffffffffffff8111156121a057600080fd5b6020830191508360208285010111156121b857600080fd5b9250929050565b600080604083850312156121d257600080fd5b6121db8361214e565b946020939093013593505050565b6000602082840312156121fb57600080fd5b815161202e816127c1565b6000806020838503121561221957600080fd5b823567ffffffffffffffff81111561223057600080fd5b61223c85828601612176565b90969095509350505050565b6000806000806000806080878903121561226157600080fd5b863567ffffffffffffffff8082111561227957600080fd5b6122858a838b01612176565b909850965086915061229960208a0161214e565b955060408901359150808211156122af57600080fd5b506122bc89828a01612176565b979a9699509497949695606090950135949350505050565b600080600080600080608087890312156122ed57600080fd5b863567ffffffffffffffff8082111561230557600080fd5b6123118a838b01612176565b90985096506020890135955060408901359450606089013591508082111561233857600080fd5b5061234589828a01612176565b979a9699509497509295939492505050565b60006020828403121561236957600080fd5b5035919050565b60008060006060848603121561238557600080fd5b833592506123956020850161214e565b915060408401356123a5816127c1565b809150509250925092565b600082825180855260208086019550808260051b84010181860160005b848110156123fb57601f198684030189526123e983835161255b565b988401989250908301906001016123cd565b5090979650505050505050565b600082825180855260208086019550808260051b84010181860160005b848110156123fb57601f1986840301895261244183835161255b565b98840198925090830190600101612425565b600082825180855260208086019550808260051b84010181860160005b848110156123fb57601f19868403018952815160a081518186526124968287018261250e565b9150508582015186860152604080830151868303828801526124b8838261250e565b6060858101516001600160a01b03169089015260809485015194909701939093525050509783019790830190600101612470565b6003811061250a57634e487b7160e01b600052602160045260246000fd5b9052565b6000815180845260005b8181101561253457602081850181015186830182015201612518565b81811115612546576000602083870101525b50601f01601f19169290920160200192915050565b6000815160808452612570608085018261250e565b905060018060a01b0360208401511660208501526040830151848203604086015261259b828261250e565b915050606083015160608501528091505092915050565b6001600160a01b038a16815260208101899052610120604082018190526000906125de8382018b61250e565b90506125ed606084018a6124ec565b8760808401528660a084015282810360c084015261260b8187612453565b905082810360e084015261261f81866123b0565b90508281036101008401526126348185612408565b9c9b505050505050505050505050565b60208152600061202e60208301846123b0565b60208152600061202e6020830184612408565b60608152600061267d6060830186612453565b60208301949094525060400152919050565b6020810161165482846124ec565b60208152600061202e602083018461250e565b6020808252602a908201527f5468652070726f6a65637420676f616c20616d6f756e7420697320616c726561604082015269191e481c995858da195960b21b606082015260800190565b6000821982111561270d5761270d61277f565b500190565b6000828210156127245761272461277f565b500390565b600181811c9082168061273d57607f821691505b6020821081141561275e57634e487b7160e01b600052602260045260246000fd5b50919050565b60006000198214156127785761277861277f565b5060010190565b634e487b7160e01b600052601160045260246000fd5b634e487b7160e01b600052602160045260246000fd5b634e487b7160e01b600052603260045260246000fd5b8015158114610e0a57600080fdfea26474726f6e5822122052fad56a9ca0562491bbf388c63095baa07454db9788ea2bb62a81d0a55b4c0464736f6c63430008060033a26474726f6e58221220aad194ca79ceed19d9b7d7ff258eaa55eab3a51119e42951bd800030592df3d964736f6c63430008060033",
  "source": "// SPDX-License-Identifier: MIT\npragma solidity >=0.4.22 <0.9.0;\n\n// Importing SafeMath Implementation\nimport \"./tron/SafeMath.sol\";\n\n// ITRC-20 contract\nimport \"./tron/ITRC20.sol\";\n\n// Import Project Contract\nimport \"./Project.sol\";\n\ncontract GoAfrica {\n    using SafeMath for uint256;\n\n    /* List of all the project in the contract */\n    Project[] public projects;\n\n    /* Event when new project is created */\n    event ProjectStarted(\n        address contractAddress,\n        address projectCreator,\n        uint256 ref,\n        string title,\n        uint256 goalAmount\n    );\n\n    /* Get project detail by Ref */\n    function getProjectByRef(uint256 projectRef)\n        external\n        view\n        returns (\n            Project proj,\n            uint256 ref,\n            uint256 goalAmount,\n            uint256 currentAmount,\n            string memory title\n        )\n    {\n        for (uint256 i = 0; i < projects.length; i++) {\n            proj = Project(projects[i]);\n            if (proj.getReference() == projectRef) {\n                return (\n                    proj,\n                    proj.getReference(),\n                    proj.getGoalBalance(),\n                    proj.getCurrentbalance(),\n                    proj.getTitle()\n                );\n            }\n        }\n        return (proj, ref, goalAmount, currentAmount, title); /* Return all type default value */\n    }\n\n    /* get a project address */\n    function getprojectAddress(uint256 projectRef)\n        external\n        view\n        returns (Project project)\n    {\n        for (uint256 i = 0; i < projects.length; i++) {\n            project = Project(projects[i]);\n            if (project.getReference() == projectRef) {\n                return project;\n            }\n        }\n        return project;\n    }\n\n    /*\n     *   Create a new Project and return it\n     */\n    function createProject(\n        ITRC20 trxToken,\n        uint256 projectRef,\n        uint256 projectGoalAmount,\n        string calldata projectTitle\n    ) external returns (Project) {\n        Project project = new Project(\n            trxToken,\n            payable(msg.sender),\n            projectRef,\n            projectGoalAmount,\n            projectTitle\n        );\n\n        projects.push(project);\n        emit ProjectStarted(\n            address(project),\n            msg.sender,\n            projectRef,\n            projectTitle,\n            projectGoalAmount\n        );\n\n        return project;\n    }\n\n    /* Return all project addresses */\n    function returnProjectsAddresses()\n        external\n        view\n        returns (Project[] memory)\n    {\n        return projects;\n    }\n}\n",
  "sourcePath": "/home/flashelperz/Documents/Code/Web/Solidity/tron-hackathon/smart-contract/contracts/GoAfrica.sol",
  "compiler": {
    "name": "solc",
    "version": "0.8.6+commit.0e36fba0.mod.Emscripten.clang"
  },
  "schemaVersion": "2.0.1",
  "updatedAt": "2022-07-07T13:06:35.088Z"
}