{
  "contractName": "GoAfrica",
  "abi": [
    {
      "anonymous": false,
      "inputs": [
        {
          "indexed": false,
          "internalType": "address",
          "name": "contractAddress",
          "type": "address"
        },
        {
          "indexed": false,
          "internalType": "address",
          "name": "projectCreator",
          "type": "address"
        },
        {
          "indexed": false,
          "internalType": "uint256",
          "name": "ref",
          "type": "uint256"
        },
        {
          "indexed": false,
          "internalType": "string",
          "name": "title",
          "type": "string"
        },
        {
          "indexed": false,
          "internalType": "uint256",
          "name": "goalAmount",
          "type": "uint256"
        }
      ],
      "name": "ProjectStarted",
      "type": "event"
    },
    {
      "inputs": [
        {
          "internalType": "contract ITRC20",
          "name": "trxToken",
          "type": "address"
        },
        {
          "internalType": "uint256",
          "name": "projectRef",
          "type": "uint256"
        },
        {
          "internalType": "uint256",
          "name": "projectGoalAmount",
          "type": "uint256"
        },
        {
          "internalType": "string",
          "name": "projectTitle",
          "type": "string"
        }
      ],
      "name": "createProject",
      "outputs": [
        {
          "internalType": "contract Project",
          "name": "",
          "type": "address"
        }
      ],
      "stateMutability": "nonpayable",
      "type": "function"
    },
    {
      "inputs": [
        {
          "internalType": "uint256",
          "name": "projectRef",
          "type": "uint256"
        }
      ],
      "name": "getProjectByRef",
      "outputs": [
        {
          "internalType": "contract Project",
          "name": "proj",
          "type": "address"
        },
        {
          "internalType": "uint256",
          "name": "ref",
          "type": "uint256"
        },
        {
          "internalType": "uint256",
          "name": "goalAmount",
          "type": "uint256"
        },
        {
          "internalType": "uint256",
          "name": "currentAmount",
          "type": "uint256"
        },
        {
          "internalType": "string",
          "name": "title",
          "type": "string"
        }
      ],
      "stateMutability": "view",
      "type": "function"
    },
    {
      "inputs": [
        {
          "internalType": "uint256",
          "name": "projectRef",
          "type": "uint256"
        }
      ],
      "name": "getprojectAddress",
      "outputs": [
        {
          "internalType": "contract Project",
          "name": "project",
          "type": "address"
        }
      ],
      "stateMutability": "view",
      "type": "function"
    },
    {
      "inputs": [
        {
          "internalType": "uint256",
          "name": "",
          "type": "uint256"
        }
      ],
      "name": "projects",
      "outputs": [
        {
          "internalType": "contract Project",
          "name": "",
          "type": "address"
        }
      ],
      "stateMutability": "view",
      "type": "function"
    },
    {
      "inputs": [],
      "name": "returnProjectsAddresses",
      "outputs": [
        {
          "internalType": "contract Project[]",
          "name": "",
          "type": "address[]"
        }
      ],
      "stateMutability": "view",
      "type": "function"
    }
  ],
  "bytecode": "0x608060405234801561001057600080fd5b50d3801561001d57600080fd5b50d2801561002a57600080fd5b506134928061003a6000396000f3fe60806040523480156200001157600080fd5b50d380156200001f57600080fd5b50d280156200002d57600080fd5b50600436106200007a5760003560e01c8063107046bd146200007f5780632e6e7fe514620000b3578063c954e7ac14620000dd578063d3d83ead14620000f4578063e07d236f146200010d575b600080fd5b6200009662000090366004620007c0565b62000124565b6040516001600160a01b0390911681526020015b60405180910390f35b620000ca620000c4366004620007c0565b6200014f565b604051620000aa959493929190620008fe565b62000096620000ee36600462000656565b62000422565b620000fe62000501565b604051620000aa919062000866565b620000966200011e366004620007c0565b62000565565b600081815481106200013557600080fd5b6000918252602090912001546001600160a01b0316905081565b600080600080606060005b6000548110156200041757600081815481106200017b576200017b620009b4565b9060005260206000200160009054906101000a90046001600160a01b0316955086866001600160a01b03166313a879776040518163ffffffff1660e01b815260040160206040518083038186803b158015620001d657600080fd5b505afa158015620001eb573d6000803e3d6000fd5b505050506040513d601f19601f82011682018060405250810190620002119190620007da565b1415620004025785866001600160a01b03166313a879776040518163ffffffff1660e01b815260040160206040518083038186803b1580156200025357600080fd5b505afa15801562000268573d6000803e3d6000fd5b505050506040513d601f19601f820116820180604052508101906200028e9190620007da565b876001600160a01b031663a533cb686040518163ffffffff1660e01b815260040160206040518083038186803b158015620002c857600080fd5b505afa158015620002dd573d6000803e3d6000fd5b505050506040513d601f19601f82011682018060405250810190620003039190620007da565b886001600160a01b031663515336c76040518163ffffffff1660e01b815260040160206040518083038186803b1580156200033d57600080fd5b505afa15801562000352573d6000803e3d6000fd5b505050506040513d601f19601f82011682018060405250810190620003789190620007da565b896001600160a01b031663ff3c1a8f6040518163ffffffff1660e01b815260040160006040518083038186803b158015620003b257600080fd5b505afa158015620003c7573d6000803e3d6000fd5b505050506040513d6000823e601f3d908101601f19168201604052620003f1919081019062000707565b955095509550955095505062000419565b806200040e816200098a565b9150506200015a565b505b91939590929450565b600080863387878787604051620004399062000648565b6200044a96959493929190620008b5565b604051809103906000f08015801562000467573d6000803e3d6000fd5b50600080546001810182559080527f290decd9548b62a8d60345a988386fc84ba6bc95484008f6362f93160ef3e5630180546001600160a01b0319166001600160a01b0383161790556040519091507f39d2c97e7d7927c27d9e1470743a75382e42afabf1447cf9215e0817f5a60f2290620004ef90839033908a90899089908c906200081d565b60405180910390a19695505050505050565b606060008054806020026020016040519081016040528092919081815260200182805480156200055b57602002820191906000526020600020905b81546001600160a01b031681526001909101906020018083116200053c575b5050505050905090565b6000805b6000548110156200064257600081815481106200058a576200058a620009b4565b9060005260206000200160009054906101000a90046001600160a01b0316915082826001600160a01b03166313a879776040518163ffffffff1660e01b815260040160206040518083038186803b158015620005e557600080fd5b505afa158015620005fa573d6000803e3d6000fd5b505050506040513d601f19601f82011682018060405250810190620006209190620007da565b14156200062d5750919050565b8062000639816200098a565b91505062000569565b50919050565b612a7c80620009e183390190565b6000806000806000608086880312156200066f57600080fd5b85356001600160a81b03811681146200068757600080fd5b6001600160a01b031694506020860135935060408601359250606086013567ffffffffffffffff80821115620006bc57600080fd5b818801915088601f830112620006d157600080fd5b813581811115620006e157600080fd5b896020828501011115620006f457600080fd5b9699959850939650602001949392505050565b6000602082840312156200071a57600080fd5b815167ffffffffffffffff808211156200073357600080fd5b818401915084601f8301126200074857600080fd5b8151818111156200075d576200075d620009ca565b604051601f8201601f19908116603f01168101908382118183101715620007885762000788620009ca565b81604052828152876020848701011115620007a257600080fd5b620007b583602083016020880162000957565b979650505050505050565b600060208284031215620007d357600080fd5b5035919050565b600060208284031215620007ed57600080fd5b5051919050565b81835281816020850137506000828201602090810191909152601f909101601f19169091010190565b6001600160a01b038781168252861660208201526040810185905260a060608201819052600090620008539083018587620007f4565b9050826080830152979650505050505050565b6020808252825182820181905260009190848201906040850190845b81811015620008a95783516001600160a01b03168352928401929184019160010162000882565b50909695505050505050565b6001600160a01b03878116825286166020820152604081018590526060810184905260a060808201819052600090620008f29083018486620007f4565b98975050505050505050565b60018060a01b038616815284602082015283604082015282606082015260a06080820152600082518060a08401526200093f8160c085016020870162000957565b601f01601f19169190910160c0019695505050505050565b60005b83811015620009745781810151838201526020016200095a565b8381111562000984576000848401525b50505050565b6000600019821415620009ad57634e487b7160e01b600052601160045260246000fd5b5060010190565b634e487b7160e01b600052603260045260246000fd5b634e487b7160e01b600052604160045260246000fdfe60806040526000805460ff191681556006553480156200001e57600080fd5b50d380156200002c57600080fd5b50d280156200003a57600080fd5b5060405162002a7c38038062002a7c8339810160408190526200005d916200016f565b60008054610100600160a81b0319166101006001600160a01b0388811691909102919091178255600180546001600160a01b031916918716919091179055600283905560035560048390558051620000bd906005906020840190620000c9565b50505050505062000308565b828054620000d7906200029c565b90600052602060002090601f016020900481019282620000fb576000855562000146565b82601f106200011657805160ff191683800117855562000146565b8280016001018555821562000146579182015b828111156200014657825182559160200191906001019062000129565b506200015492915062000158565b5090565b5b8082111562000154576000815560010162000159565b600080600080600060a086880312156200018857600080fd5b85516200019581620002ef565b6020878101516001600160a01b039283169750909190620001b681620002ef565b604089015160608a015160808b0151939092169750955093506001600160401b0380821115620001e557600080fd5b818901915089601f830112620001fa57600080fd5b8151818111156200020f576200020f620002d9565b604051601f8201601f19908116603f011681019083821181831017156200023a576200023a620002d9565b816040528281528c868487010111156200025357600080fd5b600093505b8284101562000277578484018601518185018701529285019262000258565b82841115620002895760008684830101525b8096505050505050509295509295909350565b600181811c90821680620002b157607f821691505b60208210811415620002d357634e487b7160e01b600052602260045260246000fd5b50919050565b634e487b7160e01b600052604160045260246000fd5b6001600160a81b03811681146200030557600080fd5b50565b61276480620003186000396000f3fe6080604052600436106101665760003560e01c8063a533cb68116100d1578063ce845d1d1161008a578063ea6928c111610064578063ea6928c1146105fa578063f8c14f0314610636578063fbbf93a014610649578063ff3c1a8f1461068d57600080fd5b8063ce845d1d1461055d578063d5091bf01461058d578063dda0a81a146105bc57600080fd5b8063a533cb6814610414578063a541a2a214610443578063a9e966b714610495578063b19af9aa146104cf578063bbccdf39146104e2578063c19d93fb1461051c57600080fd5b806355e877961161012357806355e87796146102be5780635faae949146102fa57806360c86bdc1461033657806361ec69cd14610366578063705d7157146103a057806372910be0146103da57600080fd5b806313a879771461016b57806321a78f68146101a95780632636b945146101d95780634a79d50c14610209578063515336c71461024557806354cf689414610274575b600080fd5b34801561017757600080fd5b50d3801561018457600080fd5b50d2801561019157600080fd5b506004545b6040519081526020015b60405180910390f35b3480156101b557600080fd5b50d380156101c257600080fd5b50d280156101cf57600080fd5b5061019660045481565b3480156101e557600080fd5b50d380156101f257600080fd5b50d280156101ff57600080fd5b5061019660025481565b34801561021557600080fd5b50d3801561022257600080fd5b50d2801561022f57600080fd5b506102386106bc565b6040516101a09190612610565b34801561025157600080fd5b50d3801561025e57600080fd5b50d2801561026b57600080fd5b50600354610196565b34801561028057600080fd5b50d3801561028d57600080fd5b50d2801561029a57600080fd5b506102ae6102a936600461230a565b61074a565b60405190151581526020016101a0565b3480156102ca57600080fd5b50d380156102d757600080fd5b50d280156102e457600080fd5b506102ed6107a8565b6040516101a091906125ca565b34801561030657600080fd5b50d3801561031357600080fd5b50d2801561032057600080fd5b5061033461032f36600461230a565b61094c565b005b34801561034257600080fd5b50d3801561034f57600080fd5b50d2801561035c57600080fd5b5061019660065481565b34801561037257600080fd5b50d3801561037f57600080fd5b50d2801561038c57600080fd5b506102ae61039b3660046121fb565b610968565b3480156103ac57600080fd5b50d380156103b957600080fd5b50d280156103c657600080fd5b506102ae6103d53660046121fb565b610bfb565b3480156103e657600080fd5b50d380156103f357600080fd5b50d2801561040057600080fd5b5061033461040f3660046121b9565b610d86565b34801561042057600080fd5b50d3801561042d57600080fd5b50d2801561043a57600080fd5b50600254610196565b34801561044f57600080fd5b50d3801561045c57600080fd5b50d2801561046957600080fd5b5060015461047d906001600160a01b031681565b6040516001600160a01b0390911681526020016101a0565b3480156104a157600080fd5b50d380156104ae57600080fd5b50d280156104bb57600080fd5b506103346104ca36600461230a565b610dae565b6102ae6104dd366004612287565b610e0c565b3480156104ee57600080fd5b50d380156104fb57600080fd5b50d2801561050857600080fd5b506102ae61051736600461216d565b6110a4565b34801561052857600080fd5b50d3801561053557600080fd5b50d2801561054257600080fd5b506000546105509060ff1681565b6040516101a09190612602565b34801561056957600080fd5b50d3801561057657600080fd5b50d2801561058357600080fd5b5061019660035481565b34801561059957600080fd5b50d380156105a657600080fd5b50d280156105b357600080fd5b506103346111fa565b3480156105c857600080fd5b50d380156105d557600080fd5b50d280156105e257600080fd5b506105eb611215565b6040516101a0939291906125dd565b34801561060657600080fd5b50d3801561061357600080fd5b50d2801561062057600080fd5b506106296113d7565b6040516101a091906125b7565b6102ae61064436600461230a565b611572565b34801561065557600080fd5b50d3801561066257600080fd5b50d2801561066f57600080fd5b50610678611980565b6040516101a099989796959493929190612525565b34801561069957600080fd5b50d380156106a657600080fd5b50d280156106b357600080fd5b50610238611f3e565b600580546106c99061269c565b80601f01602080910402602001604051908101604052809291908181526020018280546106f59061269c565b80156107425780601f1061071757610100808354040283529160200191610742565b820191906000526020600020905b81548152906001019060200180831161072557829003601f168201915b505050505081565b6000805b60075481101561079f57826007828154811061076c5761076c612718565b906000526020600020906005020160010154141561078d5750600192915050565b80610797816126d1565b91505061074e565b50600092915050565b60606009805480602002602001604051908101604052809291908181526020016000905b8282101561094357838290600052602060002090600402016040518060800160405290816000820180546107ff9061269c565b80601f016020809104026020016040519081016040528092919081815260200182805461082b9061269c565b80156108785780601f1061084d57610100808354040283529160200191610878565b820191906000526020600020905b81548152906001019060200180831161085b57829003601f168201915b505050918352505060018201546001600160a01b031660208201526002820180546040909201916108a89061269c565b80601f01602080910402602001604051908101604052809291908181526020018280546108d49061269c565b80156109215780601f106108f657610100808354040283529160200191610921565b820191906000526020600020905b81548152906001019060200180831161090457829003601f168201915b50505050508152602001600382015481525050815260200190600101906107cc565b50505050905090565b6001546001600160a01b0316331461096357600080fd5b600455565b6001546000906001600160a01b031633146109da5760405162461bcd60e51b815260206004820152602760248201527f4f6e6c792070726f6a6563742063726561746f722063616e206d616b6520612060448201526618d85cda1bdd5d60ca1b60648201526084015b60405180910390fd5b600354821115610a3d5760405162461bcd60e51b815260206004820152602860248201527f596f752063616e2072656d6f7665206d6f7265207468616e2063757272656e746044820152672062616c616e636560c01b60648201526084016109d1565b60005460405163a9059cbb60e01b81526001600160a01b038781166004830152602482018590526101009092049091169063a9059cbb90604401602060405180830381600087803b158015610a9157600080fd5b505af1158015610aa5573d6000803e3d6000fd5b505050506040513d601f19601f82011682018060405250810190610ac99190612197565b15610bed57600354610adb9083611fd0565b6003556040805160a06020601f8a018190040282018101909252608081018881526009928291908b908b90819085018382808284376000920191909152505050908252506001600160a01b03881660208083019190915260408051601f8901839004830281018301825288815292019190889088908190840183828082843760009201829052509385525050506020918201869052835460018101855593815281902082518051939460040290910192610b989284920190611fef565b506020828101516001830180546001600160a01b0319166001600160a01b0390921691909117905560408301518051610bd79260028501920190611fef565b5060608201518160030155505060019050610bf1565b5060005b9695505050505050565b6001546000906001600160a01b03163314610c1557600080fd5b60008211610c2257600080fd5b600354610c2f9083611fe3565b6003556040805160a06020601f8a018190040282018101909252608081018881526008928291908b908b90819085018382808284376000920191909152505050908252506001600160a01b03881660208083019190915260408051601f8901839004830281018301825288815292019190889088908190840183828082843760009201829052509385525050506020918201869052835460018101855593815281902082518051939460040290910192610cec9284920190611fef565b506020828101516001830180546001600160a01b0319166001600160a01b0390921691909117905560408301518051610d2b9260028501920190611fef565b50606091820151600391820155546040805133815260208101869052908101919091527fb1bd58229606cd4dec94cb51b41275ea217cfa548aac87d25510ea49595312e5910160405180910390a15060019695505050505050565b6001546001600160a01b03163314610d9d57600080fd5b610da960058383612073565b505050565b6001546001600160a01b03163314610dc557600080fd5b80610de05760008054819060ff19166001825b021790555050565b8060011415610dfc57600080546001919060ff19168280610dd8565b506000805460ff19166002179055565b6000808060005460ff166002811115610e2757610e27612702565b14610e445760405162461bcd60e51b81526004016109d190612623565b60025485600354610e55919061266d565b1115610e9d5760405162461bcd60e51b815260206004820152601760248201527654686520616d6f756e7420697320746f6f20626967202160481b60448201526064016109d1565b6000546040516323b872dd60e01b8152336004820152306024820152604481018790526101009091046001600160a01b0316906323b872dd90606401602060405180830381600087803b158015610ef357600080fd5b505af1158015610f07573d6000803e3d6000fd5b505050506040513d601f19601f82011682018060405250810190610f2b9190612197565b506040805160c06020601f8b01819004028201810190925260a081018981526007928291908c908c908190850183828082843760009201919091525050509082525060208082018a905260408051601f89018390048302810183018252888152920191908890889081908401838280828437600092018290525093855250503360208085019190915260409093018a905250835460018101855593815281902082518051939460050290910192610fe59284920190611fef565b506020828101516001830155604083015180516110089260028501920190611fef565b506060820151600382810180546001600160a01b0319166001600160a01b0390931692909217909155608090920151600490910155546110489086611fe3565b6003556110536111fa565b600354604080513381526020810188905280820192909252517fb1bd58229606cd4dec94cb51b41275ea217cfa548aac87d25510ea49595312e59181900360600190a1506001979650505050505050565b6001546000906001600160a01b0316331461110d5760405162461bcd60e51b815260206004820152602360248201527f596f7520617265206e6f7420616c6c6f77656420746f2073656e64206d6f6e6560448201526279202160e81b60648201526084016109d1565b60006003541161114f5760405162461bcd60e51b815260206004820152600d60248201526c4e6f206d6f7265206d6f6e657960981b60448201526064016109d1565b60005460405163a9059cbb60e01b81526001600160a01b038581166004830152602482018590526101009092049091169063a9059cbb90604401602060405180830381600087803b1580156111a357600080fd5b505af11580156111b7573d6000803e3d6000fd5b505050506040513d601f19601f820116820180604052508101906111db9190612197565b1561079f576003546111ed9083611fd0565b6003555060015b92915050565b60025460035410611213576000805460ff191660011790555b565b6060600080600760035460025482805480602002602001604051908101604052809291908181526020016000905b828210156113c657838290600052602060002090600502016040518060a00160405290816000820180546112769061269c565b80601f01602080910402602001604051908101604052809291908181526020018280546112a29061269c565b80156112ef5780601f106112c4576101008083540402835291602001916112ef565b820191906000526020600020905b8154815290600101906020018083116112d257829003601f168201915b50505050508152602001600182015481526020016002820180546113129061269c565b80601f016020809104026020016040519081016040528092919081815260200182805461133e9061269c565b801561138b5780601f106113605761010080835404028352916020019161138b565b820191906000526020600020905b81548152906001019060200180831161136e57829003601f168201915b505050918352505060038201546001600160a01b03166020808301919091526004909201546040909101529082526001929092019101611243565b505050509250925092509250909192565b60606008805480602002602001604051908101604052809291908181526020016000905b82821015610943578382906000526020600020906004020160405180608001604052908160008201805461142e9061269c565b80601f016020809104026020016040519081016040528092919081815260200182805461145a9061269c565b80156114a75780601f1061147c576101008083540402835291602001916114a7565b820191906000526020600020905b81548152906001019060200180831161148a57829003601f168201915b505050918352505060018201546001600160a01b031660208201526002820180546040909201916114d79061269c565b80601f01602080910402602001604051908101604052809291908181526020018280546115039061269c565b80156115505780601f1061152557610100808354040283529160200191611550565b820191906000526020600020905b81548152906001019060200180831161153357829003601f168201915b50505050508152602001600382015481525050815260200190600101906113fb565b6000808060005460ff16600281111561158d5761158d612702565b146115aa5760405162461bcd60e51b81526004016109d190612623565b600254836003546115bb919061266d565b11156116035760405162461bcd60e51b815260206004820152601760248201527654686520616d6f756e7420697320746f6f20626967202160481b60448201526064016109d1565b60006007805480602002602001604051908101604052809291908181526020016000905b828210156117aa57838290600052602060002090600502016040518060a001604052908160008201805461165a9061269c565b80601f01602080910402602001604051908101604052809291908181526020018280546116869061269c565b80156116d35780601f106116a8576101008083540402835291602001916116d3565b820191906000526020600020905b8154815290600101906020018083116116b657829003601f168201915b50505050508152602001600182015481526020016002820180546116f69061269c565b80601f01602080910402602001604051908101604052809291908181526020018280546117229061269c565b801561176f5780601f106117445761010080835404028352916020019161176f565b820191906000526020600020905b81548152906001019060200180831161175257829003601f168201915b505050918352505060038201546001600160a01b03166020808301919091526004909201546040909101529082526001929092019101611627565b50505050905060008080600090505b835181101561181757336001600160a01b03168482815181106117de576117de612718565b6020026020010151606001516001600160a01b031614156118055760019250809150611817565b8061180f816126d1565b9150506117b9565b508115611972576000546040516323b872dd60e01b8152336004820152306024820152604481018890526101009091046001600160a01b0316906323b872dd90606401602060405180830381600087803b15801561187457600080fd5b505af1158015611888573d6000803e3d6000fd5b505050506040513d601f19601f820116820180604052508101906118ac9190612197565b506118e486600783815481106118c4576118c4612718565b906000526020600020906005020160040154611fe390919063ffffffff16565b600782815481106118f7576118f7612718565b60009182526020909120600460059092020101556003546119189087611fe3565b6003556119236111fa565b600354604080513381526020810189905280820192909252517fb1bd58229606cd4dec94cb51b41275ea217cfa548aac87d25510ea49595312e59181900360600190a16001945050505061197a565b600094505050505b50919050565b600154600454600580546001600160a01b039093169260609160009182918291859182918291906119b09061269c565b80601f01602080910402602001604051908101604052809291908181526020018280546119dc9061269c565b8015611a295780601f106119fe57610100808354040283529160200191611a29565b820191906000526020600020905b815481529060010190602001808311611a0c57829003601f168201915b5050505050965060008054906101000a900460ff169550600254945060035493506007805480602002602001604051908101604052809291908181526020016000905b82821015611bef57838290600052602060002090600502016040518060a0016040529081600082018054611a9f9061269c565b80601f0160208091040260200160405190810160405280929190818152602001828054611acb9061269c565b8015611b185780601f10611aed57610100808354040283529160200191611b18565b820191906000526020600020905b815481529060010190602001808311611afb57829003601f168201915b5050505050815260200160018201548152602001600282018054611b3b9061269c565b80601f0160208091040260200160405190810160405280929190818152602001828054611b679061269c565b8015611bb45780601f10611b8957610100808354040283529160200191611bb4565b820191906000526020600020905b815481529060010190602001808311611b9757829003601f168201915b505050918352505060038201546001600160a01b03166020808301919091526004909201546040909101529082526001929092019101611a6c565b5050505092506008805480602002602001604051908101604052809291908181526020016000905b82821015611d8e5783829060005260206000209060040201604051806080016040529081600082018054611c4a9061269c565b80601f0160208091040260200160405190810160405280929190818152602001828054611c769061269c565b8015611cc35780601f10611c9857610100808354040283529160200191611cc3565b820191906000526020600020905b815481529060010190602001808311611ca657829003601f168201915b505050918352505060018201546001600160a01b03166020820152600282018054604090920191611cf39061269c565b80601f0160208091040260200160405190810160405280929190818152602001828054611d1f9061269c565b8015611d6c5780601f10611d4157610100808354040283529160200191611d6c565b820191906000526020600020905b815481529060010190602001808311611d4f57829003601f168201915b5050505050815260200160038201548152505081526020019060010190611c17565b5050505091506009805480602002602001604051908101604052809291908181526020016000905b82821015611f2d5783829060005260206000209060040201604051806080016040529081600082018054611de99061269c565b80601f0160208091040260200160405190810160405280929190818152602001828054611e159061269c565b8015611e625780601f10611e3757610100808354040283529160200191611e62565b820191906000526020600020905b815481529060010190602001808311611e4557829003601f168201915b505050918352505060018201546001600160a01b03166020820152600282018054604090920191611e929061269c565b80601f0160208091040260200160405190810160405280929190818152602001828054611ebe9061269c565b8015611f0b5780601f10611ee057610100808354040283529160200191611f0b565b820191906000526020600020905b815481529060010190602001808311611eee57829003601f168201915b5050505050815260200160038201548152505081526020019060010190611db6565b505050509050909192939495969798565b606060058054611f4d9061269c565b80601f0160208091040260200160405190810160405280929190818152602001828054611f799061269c565b8015611fc65780601f10611f9b57610100808354040283529160200191611fc6565b820191906000526020600020905b815481529060010190602001808311611fa957829003601f168201915b5050505050905090565b6000611fdc8284612685565b9392505050565b6000611fdc828461266d565b828054611ffb9061269c565b90600052602060002090601f01602090048101928261201d5760008555612063565b82601f1061203657805160ff1916838001178555612063565b82800160010185558215612063579182015b82811115612063578251825591602001919060010190612048565b5061206f9291506120e7565b5090565b82805461207f9061269c565b90600052602060002090601f0160209004810192826120a15760008555612063565b82601f106120ba5782800160ff19823516178555612063565b82800160010185558215612063579182015b828111156120635782358255916020019190600101906120cc565b5b8082111561206f57600081556001016120e8565b600081356001600160a81b038116811461211557600080fd5b6001600160a01b031692915050565b60008083601f84011261213657600080fd5b50813567ffffffffffffffff81111561214e57600080fd5b60208301915083602082850101111561216657600080fd5b9250929050565b6000806040838503121561218057600080fd5b612189836120fc565b946020939093013593505050565b6000602082840312156121a957600080fd5b81518015158114611fdc57600080fd5b600080602083850312156121cc57600080fd5b823567ffffffffffffffff8111156121e357600080fd5b6121ef85828601612124565b90969095509350505050565b6000806000806000806080878903121561221457600080fd5b863567ffffffffffffffff8082111561222c57600080fd5b6122388a838b01612124565b909850965086915061224c60208a016120fc565b9550604089013591508082111561226257600080fd5b5061226f89828a01612124565b979a9699509497949695606090950135949350505050565b600080600080600080608087890312156122a057600080fd5b863567ffffffffffffffff808211156122b857600080fd5b6122c48a838b01612124565b9098509650602089013595506040890135945060608901359150808211156122eb57600080fd5b506122f889828a01612124565b979a9699509497509295939492505050565b60006020828403121561231c57600080fd5b5035919050565b600082825180855260208086019550808260051b84010181860160005b8481101561236e57601f1986840301895261235c8383516124ce565b98840198925090830190600101612340565b5090979650505050505050565b600082825180855260208086019550808260051b84010181860160005b8481101561236e57601f198684030189526123b48383516124ce565b98840198925090830190600101612398565b600082825180855260208086019550808260051b84010181860160005b8481101561236e57601f19868403018952815160a0815181865261240982870182612481565b91505085820151868601526040808301518683038288015261242b8382612481565b6060858101516001600160a01b031690890152608094850151949097019390935250505097830197908301906001016123e3565b6003811061247d57634e487b7160e01b600052602160045260246000fd5b9052565b6000815180845260005b818110156124a75760208185018101518683018201520161248b565b818111156124b9576000602083870101525b50601f01601f19169290920160200192915050565b60008151608084526124e36080850182612481565b905060018060a01b0360208401511660208501526040830151848203604086015261250e8282612481565b915050606083015160608501528091505092915050565b6001600160a01b038a16815260208101899052610120604082018190526000906125518382018b612481565b9050612560606084018a61245f565b8760808401528660a084015282810360c084015261257e81876123c6565b905082810360e08401526125928186612323565b90508281036101008401526125a7818561237b565b9c9b505050505050505050505050565b602081526000611fdc6020830184612323565b602081526000611fdc602083018461237b565b6060815260006125f060608301866123c6565b60208301949094525060400152919050565b602081016111f4828461245f565b602081526000611fdc6020830184612481565b6020808252602a908201527f5468652070726f6a65637420676f616c20616d6f756e7420697320616c726561604082015269191e481c995858da195960b21b606082015260800190565b60008219821115612680576126806126ec565b500190565b600082821015612697576126976126ec565b500390565b600181811c908216806126b057607f821691505b6020821081141561197a57634e487b7160e01b600052602260045260246000fd5b60006000198214156126e5576126e56126ec565b5060010190565b634e487b7160e01b600052601160045260246000fd5b634e487b7160e01b600052602160045260246000fd5b634e487b7160e01b600052603260045260246000fdfea26474726f6e58221220cdbc8d456460e725a2af27dd146576223a0f39a1dbb0f514cd395f7e8c4a558a64736f6c63430008060033a26474726f6e582212208240f6b2cf8fd0a4f9f1e478dd11293c697ee13eb56a94727b9c65b2065c10af64736f6c63430008060033",
  "source": "// SPDX-License-Identifier: MIT\npragma solidity >=0.4.22 <0.9.0;\n\n// Importing SafeMath Implementation\nimport \"./tron/SafeMath.sol\";\n\n// ITRC-20 contract\nimport \"./tron/ITRC20.sol\";\n\n// Import Project Contract\nimport \"./Project.sol\";\n\ncontract GoAfrica {\n    using SafeMath for uint256;\n\n    /* List of all the project in the contract */\n    Project[] public projects;\n\n    /* Event when new project is created */\n    event ProjectStarted(\n        address contractAddress,\n        address projectCreator,\n        uint256 ref,\n        string title,\n        uint256 goalAmount\n    );\n\n    /* Get project detail by Ref */\n    function getProjectByRef(uint256 projectRef)\n        external\n        view\n        returns (\n            Project proj,\n            uint256 ref,\n            uint256 goalAmount,\n            uint256 currentAmount,\n            string memory title\n        )\n    {\n        for (uint256 i = 0; i < projects.length; i++) {\n            proj = Project(projects[i]);\n            if (proj.getReference() == projectRef) {\n                return (\n                    proj,\n                    proj.getReference(),\n                    proj.getGoalBalance(),\n                    proj.getCurrentbalance(),\n                    proj.getTitle()\n                );\n            }\n        }\n        return (proj, ref, goalAmount, currentAmount, title); /* Return all type default value */\n    }\n\n    /* get a project address */\n    function getprojectAddress(uint256 projectRef)\n        external\n        view\n        returns (Project project)\n    {\n        for (uint256 i = 0; i < projects.length; i++) {\n            project = Project(projects[i]);\n            if (project.getReference() == projectRef) {\n                return project;\n            }\n        }\n        return project;\n    }\n\n    /*\n     *   Create a new Project and return it\n     */\n    function createProject(\n        ITRC20 trxToken,\n        uint256 projectRef,\n        uint256 projectGoalAmount,\n        string calldata projectTitle\n    ) external returns (Project) {\n        Project project = new Project(\n            trxToken,\n            payable(msg.sender),\n            projectRef,\n            projectGoalAmount,\n            projectTitle\n        );\n\n        projects.push(project);\n        emit ProjectStarted(\n            address(project),\n            msg.sender,\n            projectRef,\n            projectTitle,\n            projectGoalAmount\n        );\n\n        return project;\n    }\n\n    /* Return all project addresses */\n    function returnProjectsAddresses()\n        external\n        view\n        returns (Project[] memory)\n    {\n        return projects;\n    }\n}\n",
  "sourcePath": "/home/flashelperz/Documents/Code/Web/Solidity/tron-hackathon/smart-contract/contracts/GoAfrica.sol",
  "compiler": {
    "name": "solc",
    "version": "0.8.6+commit.0e36fba0.mod.Emscripten.clang"
  },
  "schemaVersion": "2.0.1",
  "updatedAt": "2022-07-21T11:56:03.942Z"
}