{
  "contractName": "Project",
  "abi": [
    {
      "inputs": [
        {
          "internalType": "contract ITRC20",
          "name": "token",
          "type": "address"
        },
        {
          "internalType": "address payable",
          "name": "creator",
          "type": "address"
        },
        {
          "internalType": "uint256",
          "name": "projectRef",
          "type": "uint256"
        },
        {
          "internalType": "uint256",
          "name": "projectGoalAmount",
          "type": "uint256"
        },
        {
          "internalType": "string",
          "name": "projectTitle",
          "type": "string"
        }
      ],
      "stateMutability": "nonpayable",
      "type": "constructor"
    },
    {
      "anonymous": false,
      "inputs": [
        {
          "indexed": false,
          "internalType": "address",
          "name": "investor",
          "type": "address"
        },
        {
          "indexed": false,
          "internalType": "uint256",
          "name": "amount",
          "type": "uint256"
        },
        {
          "indexed": false,
          "internalType": "uint256",
          "name": "currentTotal",
          "type": "uint256"
        }
      ],
      "name": "ReceivedFunding",
      "type": "event"
    },
    {
      "inputs": [
        {
          "internalType": "uint256",
          "name": "amount",
          "type": "uint256"
        },
        {
          "internalType": "address",
          "name": "oldAddress",
          "type": "address"
        },
        {
          "internalType": "bool",
          "name": "changeAddress",
          "type": "bool"
        }
      ],
      "name": "addPart",
      "outputs": [
        {
          "internalType": "bool",
          "name": "",
          "type": "bool"
        }
      ],
      "stateMutability": "payable",
      "type": "function"
    },
    {
      "inputs": [
        {
          "internalType": "string",
          "name": "cashInDate",
          "type": "string"
        },
        {
          "internalType": "address",
          "name": "senderAddress",
          "type": "address"
        },
        {
          "internalType": "string",
          "name": "receivingReason",
          "type": "string"
        },
        {
          "internalType": "uint256",
          "name": "amount",
          "type": "uint256"
        }
      ],
      "name": "cashIn",
      "outputs": [
        {
          "internalType": "bool",
          "name": "result",
          "type": "bool"
        }
      ],
      "stateMutability": "nonpayable",
      "type": "function"
    },
    {
      "inputs": [
        {
          "internalType": "string",
          "name": "cashOutDate",
          "type": "string"
        },
        {
          "internalType": "address",
          "name": "receiverAddress",
          "type": "address"
        },
        {
          "internalType": "string",
          "name": "sendingReason",
          "type": "string"
        },
        {
          "internalType": "uint256",
          "name": "amount",
          "type": "uint256"
        }
      ],
      "name": "cashOut",
      "outputs": [
        {
          "internalType": "bool",
          "name": "result",
          "type": "bool"
        }
      ],
      "stateMutability": "nonpayable",
      "type": "function"
    },
    {
      "inputs": [],
      "name": "checkIfComplete",
      "outputs": [],
      "stateMutability": "nonpayable",
      "type": "function"
    },
    {
      "inputs": [],
      "name": "currentBalance",
      "outputs": [
        {
          "internalType": "uint256",
          "name": "",
          "type": "uint256"
        }
      ],
      "stateMutability": "view",
      "type": "function"
    },
    {
      "inputs": [],
      "name": "cycleDeadline",
      "outputs": [
        {
          "internalType": "uint256",
          "name": "",
          "type": "uint256"
        }
      ],
      "stateMutability": "view",
      "type": "function"
    },
    {
      "inputs": [],
      "name": "getCashIns",
      "outputs": [
        {
          "components": [
            {
              "internalType": "string",
              "name": "cashInDate",
              "type": "string"
            },
            {
              "internalType": "address",
              "name": "senderAddress",
              "type": "address"
            },
            {
              "internalType": "string",
              "name": "reasonOfSending",
              "type": "string"
            },
            {
              "internalType": "uint256",
              "name": "amount",
              "type": "uint256"
            }
          ],
          "internalType": "struct Project.CashIn[]",
          "name": "",
          "type": "tuple[]"
        }
      ],
      "stateMutability": "view",
      "type": "function"
    },
    {
      "inputs": [],
      "name": "getCashOuts",
      "outputs": [
        {
          "components": [
            {
              "internalType": "string",
              "name": "cashOutDate",
              "type": "string"
            },
            {
              "internalType": "address",
              "name": "receiverAddress",
              "type": "address"
            },
            {
              "internalType": "string",
              "name": "reasonOfSending",
              "type": "string"
            },
            {
              "internalType": "uint256",
              "name": "amount",
              "type": "uint256"
            }
          ],
          "internalType": "struct Project.CashOut[]",
          "name": "",
          "type": "tuple[]"
        }
      ],
      "stateMutability": "view",
      "type": "function"
    },
    {
      "inputs": [],
      "name": "getContributions",
      "outputs": [
        {
          "components": [
            {
              "internalType": "string",
              "name": "investDate",
              "type": "string"
            },
            {
              "internalType": "string",
              "name": "email",
              "type": "string"
            },
            {
              "internalType": "address",
              "name": "investorAddress",
              "type": "address"
            },
            {
              "internalType": "uint256",
              "name": "amount",
              "type": "uint256"
            }
          ],
          "internalType": "struct Project.Investment[]",
          "name": "invests",
          "type": "tuple[]"
        },
        {
          "internalType": "uint256",
          "name": "currentAmount",
          "type": "uint256"
        },
        {
          "internalType": "uint256",
          "name": "goal",
          "type": "uint256"
        }
      ],
      "stateMutability": "view",
      "type": "function"
    },
    {
      "inputs": [],
      "name": "getCurrentbalance",
      "outputs": [
        {
          "internalType": "uint256",
          "name": "",
          "type": "uint256"
        }
      ],
      "stateMutability": "view",
      "type": "function"
    },
    {
      "inputs": [],
      "name": "getDetails",
      "outputs": [
        {
          "internalType": "address payable",
          "name": "creator",
          "type": "address"
        },
        {
          "internalType": "uint256",
          "name": "projectRef",
          "type": "uint256"
        },
        {
          "internalType": "string",
          "name": "projectTitle",
          "type": "string"
        },
        {
          "internalType": "enum Project.ProjectState",
          "name": "currentState",
          "type": "uint8"
        },
        {
          "internalType": "uint256",
          "name": "projectGoalAmount",
          "type": "uint256"
        },
        {
          "internalType": "uint256",
          "name": "currentAmount",
          "type": "uint256"
        },
        {
          "components": [
            {
              "internalType": "string",
              "name": "investDate",
              "type": "string"
            },
            {
              "internalType": "string",
              "name": "email",
              "type": "string"
            },
            {
              "internalType": "address",
              "name": "investorAddress",
              "type": "address"
            },
            {
              "internalType": "uint256",
              "name": "amount",
              "type": "uint256"
            }
          ],
          "internalType": "struct Project.Investment[]",
          "name": "investmentss",
          "type": "tuple[]"
        },
        {
          "components": [
            {
              "internalType": "string",
              "name": "cashInDate",
              "type": "string"
            },
            {
              "internalType": "address",
              "name": "senderAddress",
              "type": "address"
            },
            {
              "internalType": "string",
              "name": "reasonOfSending",
              "type": "string"
            },
            {
              "internalType": "uint256",
              "name": "amount",
              "type": "uint256"
            }
          ],
          "internalType": "struct Project.CashIn[]",
          "name": "cashinss",
          "type": "tuple[]"
        },
        {
          "components": [
            {
              "internalType": "string",
              "name": "cashOutDate",
              "type": "string"
            },
            {
              "internalType": "address",
              "name": "receiverAddress",
              "type": "address"
            },
            {
              "internalType": "string",
              "name": "reasonOfSending",
              "type": "string"
            },
            {
              "internalType": "uint256",
              "name": "amount",
              "type": "uint256"
            }
          ],
          "internalType": "struct Project.CashOut[]",
          "name": "cashoutss",
          "type": "tuple[]"
        }
      ],
      "stateMutability": "view",
      "type": "function"
    },
    {
      "inputs": [],
      "name": "getGoalBalance",
      "outputs": [
        {
          "internalType": "uint256",
          "name": "",
          "type": "uint256"
        }
      ],
      "stateMutability": "view",
      "type": "function"
    },
    {
      "inputs": [],
      "name": "getReference",
      "outputs": [
        {
          "internalType": "uint256",
          "name": "",
          "type": "uint256"
        }
      ],
      "stateMutability": "view",
      "type": "function"
    },
    {
      "inputs": [],
      "name": "getTitle",
      "outputs": [
        {
          "internalType": "string",
          "name": "",
          "type": "string"
        }
      ],
      "stateMutability": "view",
      "type": "function"
    },
    {
      "inputs": [],
      "name": "goalAmount",
      "outputs": [
        {
          "internalType": "uint256",
          "name": "",
          "type": "uint256"
        }
      ],
      "stateMutability": "view",
      "type": "function"
    },
    {
      "inputs": [
        {
          "internalType": "string",
          "name": "investDate",
          "type": "string"
        },
        {
          "internalType": "uint256",
          "name": "amount",
          "type": "uint256"
        },
        {
          "internalType": "string",
          "name": "emailAddress",
          "type": "string"
        }
      ],
      "name": "invest",
      "outputs": [
        {
          "internalType": "bool",
          "name": "",
          "type": "bool"
        }
      ],
      "stateMutability": "payable",
      "type": "function"
    },
    {
      "inputs": [],
      "name": "projectCreator",
      "outputs": [
        {
          "internalType": "address payable",
          "name": "",
          "type": "address"
        }
      ],
      "stateMutability": "view",
      "type": "function"
    },
    {
      "inputs": [],
      "name": "ref",
      "outputs": [
        {
          "internalType": "uint256",
          "name": "",
          "type": "uint256"
        }
      ],
      "stateMutability": "view",
      "type": "function"
    },
    {
      "inputs": [
        {
          "internalType": "address",
          "name": "investorAddress",
          "type": "address"
        },
        {
          "internalType": "uint256",
          "name": "amount",
          "type": "uint256"
        }
      ],
      "name": "sendIncome",
      "outputs": [
        {
          "internalType": "bool",
          "name": "result",
          "type": "bool"
        }
      ],
      "stateMutability": "nonpayable",
      "type": "function"
    },
    {
      "inputs": [
        {
          "internalType": "uint256",
          "name": "referenceProject",
          "type": "uint256"
        }
      ],
      "name": "setReference",
      "outputs": [],
      "stateMutability": "nonpayable",
      "type": "function"
    },
    {
      "inputs": [
        {
          "internalType": "uint256",
          "name": "stateNumber",
          "type": "uint256"
        }
      ],
      "name": "setState",
      "outputs": [],
      "stateMutability": "nonpayable",
      "type": "function"
    },
    {
      "inputs": [
        {
          "internalType": "string",
          "name": "_title",
          "type": "string"
        }
      ],
      "name": "setTitle",
      "outputs": [],
      "stateMutability": "nonpayable",
      "type": "function"
    },
    {
      "inputs": [],
      "name": "state",
      "outputs": [
        {
          "internalType": "enum Project.ProjectState",
          "name": "",
          "type": "uint8"
        }
      ],
      "stateMutability": "view",
      "type": "function"
    },
    {
      "inputs": [],
      "name": "title",
      "outputs": [
        {
          "internalType": "string",
          "name": "",
          "type": "string"
        }
      ],
      "stateMutability": "view",
      "type": "function"
    }
  ],
  "bytecode": "0x60806040526000805460ff191681556006553480156200001e57600080fd5b50d380156200002c57600080fd5b50d280156200003a57600080fd5b5060405162002a3c38038062002a3c8339810160408190526200005d916200016f565b60008054610100600160a81b0319166101006001600160a01b0388811691909102919091178255600180546001600160a01b031916918716919091179055600283905560035560048390558051620000bd906005906020840190620000c9565b50505050505062000308565b828054620000d7906200029c565b90600052602060002090601f016020900481019282620000fb576000855562000146565b82601f106200011657805160ff191683800117855562000146565b8280016001018555821562000146579182015b828111156200014657825182559160200191906001019062000129565b506200015492915062000158565b5090565b5b8082111562000154576000815560010162000159565b600080600080600060a086880312156200018857600080fd5b85516200019581620002ef565b6020878101516001600160a01b039283169750909190620001b681620002ef565b604089015160608a015160808b0151939092169750955093506001600160401b0380821115620001e557600080fd5b818901915089601f830112620001fa57600080fd5b8151818111156200020f576200020f620002d9565b604051601f8201601f19908116603f011681019083821181831017156200023a576200023a620002d9565b816040528281528c868487010111156200025357600080fd5b600093505b8284101562000277578484018601518185018701529285019262000258565b82841115620002895760008684830101525b8096505050505050509295509295909350565b600181811c90821680620002b157607f821691505b60208210811415620002d357634e487b7160e01b600052602260045260246000fd5b50919050565b634e487b7160e01b600052604160045260246000fd5b6001600160a81b03811681146200030557600080fd5b50565b61272480620003186000396000f3fe60806040526004361061014b5760003560e01c8063a533cb68116100b6578063ce845d1d1161006f578063ce845d1d1461051b578063d5091bf01461054b578063dda0a81a1461057a578063ea6928c1146105b8578063fbbf93a0146105f4578063ff3c1a8f1461063857600080fd5b8063a533cb68146103d2578063a541a2a214610401578063a9e966b714610453578063ae2023ed1461048d578063bbccdf39146104a0578063c19d93fb146104da57600080fd5b806355e877961161010857806355e877961461027c5780635faae949146102b857806360c86bdc146102f457806361ec69cd14610324578063705d71571461035e57806372910be01461039857600080fd5b80630e7a72711461015057806313a879771461017857806321a78f68146101b15780632636b945146101e15780634a79d50c14610211578063515336c71461024d575b600080fd5b61016361015e366004612207565b610667565b60405190151581526020015b60405180910390f35b34801561018457600080fd5b50d3801561019157600080fd5b50d2801561019e57600080fd5b506004545b60405190815260200161016f565b3480156101bd57600080fd5b50d380156101ca57600080fd5b50d280156101d757600080fd5b506101a360045481565b3480156101ed57600080fd5b50d380156101fa57600080fd5b50d2801561020757600080fd5b506101a360025481565b34801561021d57600080fd5b50d3801561022a57600080fd5b50d2801561023757600080fd5b506102406108f6565b60405161016f91906125bc565b34801561025957600080fd5b50d3801561026657600080fd5b50d2801561027357600080fd5b506003546101a3565b34801561028857600080fd5b50d3801561029557600080fd5b50d280156102a257600080fd5b506102ab610984565b60405161016f9190612576565b3480156102c457600080fd5b50d380156102d157600080fd5b50d280156102de57600080fd5b506102f26102ed366004612281565b610b28565b005b34801561030057600080fd5b50d3801561030d57600080fd5b50d2801561031a57600080fd5b506101a360065481565b34801561033057600080fd5b50d3801561033d57600080fd5b50d2801561034a57600080fd5b5061016361035936600461217b565b610b44565b34801561036a57600080fd5b50d3801561037757600080fd5b50d2801561038457600080fd5b5061016361039336600461217b565b610dd2565b3480156103a457600080fd5b50d380156103b157600080fd5b50d280156103be57600080fd5b506102f26103cd366004612139565b610f5d565b3480156103de57600080fd5b50d380156103eb57600080fd5b50d280156103f857600080fd5b506002546101a3565b34801561040d57600080fd5b50d3801561041a57600080fd5b50d2801561042757600080fd5b5060015461043b906001600160a01b031681565b6040516001600160a01b03909116815260200161016f565b34801561045f57600080fd5b50d3801561046c57600080fd5b50d2801561047957600080fd5b506102f2610488366004612281565b610f85565b61016361049b36600461229a565b610fe4565b3480156104ac57600080fd5b50d380156104b957600080fd5b50d280156104c657600080fd5b506101636104d53660046120f2565b611443565b3480156104e657600080fd5b50d380156104f357600080fd5b50d2801561050057600080fd5b5060005461050e9060ff1681565b60405161016f91906125ae565b34801561052757600080fd5b50d3801561053457600080fd5b50d2801561054157600080fd5b506101a360035481565b34801561055757600080fd5b50d3801561056457600080fd5b50d2801561057157600080fd5b506102f26115a1565b34801561058657600080fd5b50d3801561059357600080fd5b50d280156105a057600080fd5b506105a96115bc565b60405161016f93929190612589565b3480156105c457600080fd5b50d380156105d157600080fd5b50d280156105de57600080fd5b506105e7611774565b60405161016f9190612563565b34801561060057600080fd5b50d3801561060d57600080fd5b50d2801561061a57600080fd5b5061062361190f565b60405161016f999897969594939291906124d1565b34801561064457600080fd5b50d3801561065157600080fd5b50d2801561065e57600080fd5b50610240611ec3565b6000808060005460ff166002811115610682576106826126b4565b146106a85760405162461bcd60e51b815260040161069f906125cf565b60405180910390fd5b600254856003546106b99190612619565b11156107015760405162461bcd60e51b815260206004820152601760248201527654686520616d6f756e7420697320746f6f20626967202160481b604482015260640161069f565b6000546040516323b872dd60e01b81523360048201523060248201523460448201526101009091046001600160a01b0316906323b872dd90606401602060405180830381600087803b15801561075657600080fd5b505af115801561076a573d6000803e3d6000fd5b505050506040513d601f19601f8201168201806040525081019061078e919061211c565b506040805160a06020601f8a018190040282018101909252608081018881526007928291908b908b9081908501838280828437600092019190915250505090825250604080516020601f890181900481028201810190925287815291810191908890889081908401838280828437600092018290525093855250503360208085019190915260409093018a9052508354600181018555938152819020825180519394600402909101926108449284920190611f74565b50602082810151805161085d9260018501920190611f74565b5060408201516002820180546001600160a01b0319166001600160a01b039092169190911790556060909101516003918201555461089b9086611f55565b6003556108a66115a1565b600354604080513381526020810188905280820192909252517fb1bd58229606cd4dec94cb51b41275ea217cfa548aac87d25510ea49595312e59181900360600190a15060019695505050505050565b6005805461090390612648565b80601f016020809104026020016040519081016040528092919081815260200182805461092f90612648565b801561097c5780601f106109515761010080835404028352916020019161097c565b820191906000526020600020905b81548152906001019060200180831161095f57829003601f168201915b505050505081565b60606009805480602002602001604051908101604052809291908181526020016000905b82821015610b1f57838290600052602060002090600402016040518060800160405290816000820180546109db90612648565b80601f0160208091040260200160405190810160405280929190818152602001828054610a0790612648565b8015610a545780601f10610a2957610100808354040283529160200191610a54565b820191906000526020600020905b815481529060010190602001808311610a3757829003601f168201915b505050918352505060018201546001600160a01b03166020820152600282018054604090920191610a8490612648565b80601f0160208091040260200160405190810160405280929190818152602001828054610ab090612648565b8015610afd5780601f10610ad257610100808354040283529160200191610afd565b820191906000526020600020905b815481529060010190602001808311610ae057829003601f168201915b50505050508152602001600382015481525050815260200190600101906109a8565b50505050905090565b6001546001600160a01b03163314610b3f57600080fd5b600455565b6001546000906001600160a01b03163314610bb15760405162461bcd60e51b815260206004820152602760248201527f4f6e6c792070726f6a6563742063726561746f722063616e206d616b6520612060448201526618d85cda1bdd5d60ca1b606482015260840161069f565b600354821115610c145760405162461bcd60e51b815260206004820152602860248201527f596f752063616e2072656d6f7665206d6f7265207468616e2063757272656e746044820152672062616c616e636560c01b606482015260840161069f565b60005460405163a9059cbb60e01b81526001600160a01b038781166004830152602482018590526101009092049091169063a9059cbb90604401602060405180830381600087803b158015610c6857600080fd5b505af1158015610c7c573d6000803e3d6000fd5b505050506040513d601f19601f82011682018060405250810190610ca0919061211c565b15610dc457600354610cb29083611f68565b6003556040805160a06020601f8a018190040282018101909252608081018881526009928291908b908b90819085018382808284376000920191909152505050908252506001600160a01b03881660208083019190915260408051601f8901839004830281018301825288815292019190889088908190840183828082843760009201829052509385525050506020918201869052835460018101855593815281902082518051939460040290910192610d6f9284920190611f74565b506020828101516001830180546001600160a01b0319166001600160a01b0390921691909117905560408301518051610dae9260028501920190611f74565b5060608201518160030155505060019050610dc8565b5060005b9695505050505050565b6001546000906001600160a01b03163314610dec57600080fd5b60008211610df957600080fd5b600354610e069083611f55565b6003556040805160a06020601f8a018190040282018101909252608081018881526008928291908b908b90819085018382808284376000920191909152505050908252506001600160a01b03881660208083019190915260408051601f8901839004830281018301825288815292019190889088908190840183828082843760009201829052509385525050506020918201869052835460018101855593815281902082518051939460040290910192610ec39284920190611f74565b506020828101516001830180546001600160a01b0319166001600160a01b0390921691909117905560408301518051610f029260028501920190611f74565b50606091820151600391820155546040805133815260208101869052908101919091527fb1bd58229606cd4dec94cb51b41275ea217cfa548aac87d25510ea49595312e5910160405180910390a15060019695505050505050565b6001546001600160a01b03163314610f7457600080fd5b610f8060058383611ff8565b505050565b6001546001600160a01b03163314610f9c57600080fd5b80610fb75760008054819060ff19166001825b021790555050565b8060011415610fd357600080546001919060ff19168280610faf565b6000805460ff191660021790555b50565b6000808060005460ff166002811115610fff57610fff6126b4565b1461101c5760405162461bcd60e51b815260040161069f906125cf565b6002548560035461102d9190612619565b11156110755760405162461bcd60e51b815260206004820152601760248201527654686520616d6f756e7420697320746f6f20626967202160481b604482015260640161069f565b60006007805480602002602001604051908101604052809291908181526020016000905b8282101561121257838290600052602060002090600402016040518060800160405290816000820180546110cc90612648565b80601f01602080910402602001604051908101604052809291908181526020018280546110f890612648565b80156111455780601f1061111a57610100808354040283529160200191611145565b820191906000526020600020905b81548152906001019060200180831161112857829003601f168201915b5050505050815260200160018201805461115e90612648565b80601f016020809104026020016040519081016040528092919081815260200182805461118a90612648565b80156111d75780601f106111ac576101008083540402835291602001916111d7565b820191906000526020600020905b8154815290600101906020018083116111ba57829003601f168201915b505050918352505060028201546001600160a01b03166020808301919091526003909201546040909101529082526001929092019101611099565b50505050905060008080600090505b835181101561127f57876001600160a01b0316848281518110611246576112466126ca565b6020026020010151604001516001600160a01b0316141561126d576001925080915061127f565b8061127781612683565b915050611221565b508115611433576000546040516323b872dd60e01b8152336004820152306024820152604481018a90526101009091046001600160a01b0316906323b872dd90606401602060405180830381600087803b1580156112dc57600080fd5b505af11580156112f0573d6000803e3d6000fd5b505050506040513d601f19601f82011682018060405250810190611314919061211c565b5061134c886007838154811061132c5761132c6126ca565b906000526020600020906004020160030154611f5590919063ffffffff16565b6007828154811061135f5761135f6126ca565b90600052602060002090600402016003018190555061138988600354611f5590919063ffffffff16565b60035585156113dc5733600782815481106113a6576113a66126ca565b906000526020600020906004020160020160006101000a8154816001600160a01b0302191690836001600160a01b031602179055505b6113e46115a1565b60035460408051338152602081018b905280820192909252517fb1bd58229606cd4dec94cb51b41275ea217cfa548aac87d25510ea49595312e59181900360600190a16001945050505061143b565b600094505050505b509392505050565b6001546000906001600160a01b031633146114ac5760405162461bcd60e51b815260206004820152602360248201527f596f7520617265206e6f7420616c6c6f77656420746f2073656e64206d6f6e6560448201526279202160e81b606482015260840161069f565b6000600354116114ee5760405162461bcd60e51b815260206004820152600d60248201526c4e6f206d6f7265206d6f6e657960981b604482015260640161069f565b60005460405163a9059cbb60e01b81526001600160a01b038581166004830152602482018590526101009092049091169063a9059cbb90604401602060405180830381600087803b15801561154257600080fd5b505af1158015611556573d6000803e3d6000fd5b505050506040513d601f19601f8201168201806040525081019061157a919061211c565b156115975760035461158c9083611f68565b60035550600161159b565b5060005b92915050565b600254600354106115ba576000805460ff191660011790555b565b6060600080600760035460025482805480602002602001604051908101604052809291908181526020016000905b82821015611763578382906000526020600020906004020160405180608001604052908160008201805461161d90612648565b80601f016020809104026020016040519081016040528092919081815260200182805461164990612648565b80156116965780601f1061166b57610100808354040283529160200191611696565b820191906000526020600020905b81548152906001019060200180831161167957829003601f168201915b505050505081526020016001820180546116af90612648565b80601f01602080910402602001604051908101604052809291908181526020018280546116db90612648565b80156117285780601f106116fd57610100808354040283529160200191611728565b820191906000526020600020905b81548152906001019060200180831161170b57829003601f168201915b505050918352505060028201546001600160a01b031660208083019190915260039092015460409091015290825260019290920191016115ea565b505050509250925092509250909192565b60606008805480602002602001604051908101604052809291908181526020016000905b82821015610b1f57838290600052602060002090600402016040518060800160405290816000820180546117cb90612648565b80601f01602080910402602001604051908101604052809291908181526020018280546117f790612648565b80156118445780601f1061181957610100808354040283529160200191611844565b820191906000526020600020905b81548152906001019060200180831161182757829003601f168201915b505050918352505060018201546001600160a01b0316602082015260028201805460409092019161187490612648565b80601f01602080910402602001604051908101604052809291908181526020018280546118a090612648565b80156118ed5780601f106118c2576101008083540402835291602001916118ed565b820191906000526020600020905b8154815290600101906020018083116118d057829003601f168201915b5050505050815260200160038201548152505081526020019060010190611798565b600154600454600580546001600160a01b0390931692606091600091829182918591829182919061193f90612648565b80601f016020809104026020016040519081016040528092919081815260200182805461196b90612648565b80156119b85780601f1061198d576101008083540402835291602001916119b8565b820191906000526020600020905b81548152906001019060200180831161199b57829003601f168201915b5050505050965060008054906101000a900460ff169550600254945060035493506007805480602002602001604051908101604052809291908181526020016000905b82821015611b745783829060005260206000209060040201604051806080016040529081600082018054611a2e90612648565b80601f0160208091040260200160405190810160405280929190818152602001828054611a5a90612648565b8015611aa75780601f10611a7c57610100808354040283529160200191611aa7565b820191906000526020600020905b815481529060010190602001808311611a8a57829003601f168201915b50505050508152602001600182018054611ac090612648565b80601f0160208091040260200160405190810160405280929190818152602001828054611aec90612648565b8015611b395780601f10611b0e57610100808354040283529160200191611b39565b820191906000526020600020905b815481529060010190602001808311611b1c57829003601f168201915b505050918352505060028201546001600160a01b031660208083019190915260039092015460409091015290825260019290920191016119fb565b5050505092506008805480602002602001604051908101604052809291908181526020016000905b82821015611d135783829060005260206000209060040201604051806080016040529081600082018054611bcf90612648565b80601f0160208091040260200160405190810160405280929190818152602001828054611bfb90612648565b8015611c485780601f10611c1d57610100808354040283529160200191611c48565b820191906000526020600020905b815481529060010190602001808311611c2b57829003601f168201915b505050918352505060018201546001600160a01b03166020820152600282018054604090920191611c7890612648565b80601f0160208091040260200160405190810160405280929190818152602001828054611ca490612648565b8015611cf15780601f10611cc657610100808354040283529160200191611cf1565b820191906000526020600020905b815481529060010190602001808311611cd457829003601f168201915b5050505050815260200160038201548152505081526020019060010190611b9c565b5050505091506009805480602002602001604051908101604052809291908181526020016000905b82821015611eb25783829060005260206000209060040201604051806080016040529081600082018054611d6e90612648565b80601f0160208091040260200160405190810160405280929190818152602001828054611d9a90612648565b8015611de75780601f10611dbc57610100808354040283529160200191611de7565b820191906000526020600020905b815481529060010190602001808311611dca57829003601f168201915b505050918352505060018201546001600160a01b03166020820152600282018054604090920191611e1790612648565b80601f0160208091040260200160405190810160405280929190818152602001828054611e4390612648565b8015611e905780601f10611e6557610100808354040283529160200191611e90565b820191906000526020600020905b815481529060010190602001808311611e7357829003601f168201915b5050505050815260200160038201548152505081526020019060010190611d3b565b505050509050909192939495969798565b606060058054611ed290612648565b80601f0160208091040260200160405190810160405280929190818152602001828054611efe90612648565b8015611f4b5780601f10611f2057610100808354040283529160200191611f4b565b820191906000526020600020905b815481529060010190602001808311611f2e57829003601f168201915b5050505050905090565b6000611f618284612619565b9392505050565b6000611f618284612631565b828054611f8090612648565b90600052602060002090601f016020900481019282611fa25760008555611fe8565b82601f10611fbb57805160ff1916838001178555611fe8565b82800160010185558215611fe8579182015b82811115611fe8578251825591602001919060010190611fcd565b50611ff492915061206c565b5090565b82805461200490612648565b90600052602060002090601f0160209004810192826120265760008555611fe8565b82601f1061203f5782800160ff19823516178555611fe8565b82800160010185558215611fe8579182015b82811115611fe8578235825591602001919060010190612051565b5b80821115611ff4576000815560010161206d565b600081356001600160a81b038116811461209a57600080fd5b6001600160a01b031692915050565b60008083601f8401126120bb57600080fd5b50813567ffffffffffffffff8111156120d357600080fd5b6020830191508360208285010111156120eb57600080fd5b9250929050565b6000806040838503121561210557600080fd5b61210e83612081565b946020939093013593505050565b60006020828403121561212e57600080fd5b8151611f61816126e0565b6000806020838503121561214c57600080fd5b823567ffffffffffffffff81111561216357600080fd5b61216f858286016120a9565b90969095509350505050565b6000806000806000806080878903121561219457600080fd5b863567ffffffffffffffff808211156121ac57600080fd5b6121b88a838b016120a9565b90985096508691506121cc60208a01612081565b955060408901359150808211156121e257600080fd5b506121ef89828a016120a9565b979a9699509497949695606090950135949350505050565b60008060008060006060868803121561221f57600080fd5b853567ffffffffffffffff8082111561223757600080fd5b61224389838a016120a9565b909750955060208801359450604088013591508082111561226357600080fd5b50612270888289016120a9565b969995985093965092949392505050565b60006020828403121561229357600080fd5b5035919050565b6000806000606084860312156122af57600080fd5b833592506122bf60208501612081565b915060408401356122cf816126e0565b809150509250925092565b600082825180855260208086019550808260051b84010181860160005b8481101561232557601f1986840301895261231383835161247a565b988401989250908301906001016122f7565b5090979650505050505050565b600082825180855260208086019550808260051b84010181860160005b8481101561232557601f1986840301895261236b83835161247a565b9884019892509083019060010161234f565b600082825180855260208086019550808260051b84010181860160005b8481101561232557601f198684030189528151608081518186526123c08287018261242d565b91505085820151858203878701526123d8828261242d565b6040848101516001600160a01b03169088015260609384015193909601929092525050978301979083019060010161239a565b6003811061242957634e487b7160e01b600052602160045260246000fd5b9052565b6000815180845260005b8181101561245357602081850181015186830182015201612437565b81811115612465576000602083870101525b50601f01601f19169290920160200192915050565b600081516080845261248f608085018261242d565b905060018060a01b036020840151166020850152604083015184820360408601526124ba828261242d565b915050606083015160608501528091505092915050565b6001600160a01b038a16815260208101899052610120604082018190526000906124fd8382018b61242d565b905061250c606084018a61240b565b8760808401528660a084015282810360c084015261252a818761237d565b905082810360e084015261253e81866122da565b90508281036101008401526125538185612332565b9c9b505050505050505050505050565b602081526000611f6160208301846122da565b602081526000611f616020830184612332565b60608152600061259c606083018661237d565b60208301949094525060400152919050565b6020810161159b828461240b565b602081526000611f61602083018461242d565b6020808252602a908201527f5468652070726f6a65637420676f616c20616d6f756e7420697320616c726561604082015269191e481c995858da195960b21b606082015260800190565b6000821982111561262c5761262c61269e565b500190565b6000828210156126435761264361269e565b500390565b600181811c9082168061265c57607f821691505b6020821081141561267d57634e487b7160e01b600052602260045260246000fd5b50919050565b60006000198214156126975761269761269e565b5060010190565b634e487b7160e01b600052601160045260246000fd5b634e487b7160e01b600052602160045260246000fd5b634e487b7160e01b600052603260045260246000fd5b8015158114610fe157600080fdfea26474726f6e582212200d6838dcc3d96e00c4806f354f75bb0572275257829c4e3bb18af0ec18f0ff6b64736f6c63430008060033",
  "source": "// SPDX-License-Identifier: MIT\npragma solidity ^0.8.0;\n\n// Importing SafeMath Implementation\nimport \"./tron/SafeMath.sol\";\n\n// ITRC-20 contract\nimport \"./tron/ITRC20.sol\";\n\ncontract Project {\n    using SafeMath for uint256;\n\n    /* \n    *   Data type: Enum (ProjectState)\n    *   Refer to all available project's states\n    */\n    enum ProjectState {\n        Fundraising,\n        Ready,\n        Closed\n    }\n\n    /* \n    *   Data Structure: Investment\n    *   Take date, amount, email address and the investor address\n    */\n    struct Investment {\n        string investDate;\n        string email;\n        address investorAddress;\n        uint256 amount;\n    }\n\n    /* \n    *   Data Structure: CashIn\n    *   Usage: When the project receive some money \n    *   Take date, Sender address, Reason of sending and the amount sent\n    */\n    struct CashIn {\n        string cashInDate;\n        address senderAddress;\n        string reasonOfSending;\n        uint256 amount;\n    }\n\n    /* \n    *   Data Structure: CashOut\n    *   Usage: When we remove a specifuc amount inside project balance \n    *   Take date, Receiver address, Reason of sending and the amount sent\n    */\n    struct CashOut {\n        string cashOutDate;\n        address receiverAddress;\n        string reasonOfSending;\n        uint256 amount;\n    }\n\n    /*\n    *   All Project variable\n    *   state: to manage project state (set default to Fundraising)\n    *   trxToken: An interface of TRC20 (use to make transfert of token between addresses)\n    *   goalAmount: the project goalAmount\n    *   currentBalance: to current balance of the project\n    *   ref: The project reference or project Id (helpfull while trying to get project details using only ref number)\n    *   title: Project title\n    *   investments: List of all investments\n    *   cashins: List of all Project's CashIn\n    *   cashOut: List of all Project's cashOut\n    */\n    ProjectState public state = ProjectState.Fundraising;\n    ITRC20 private trxToken;\n    address payable public projectCreator;\n    uint256 public goalAmount;\n    uint256 public currentBalance;\n    uint256 public ref;\n    string public title;\n    uint256 public cycleDeadline = 0;\n    Investment[] investments;\n    CashIn[] cashins;\n    CashOut[] cashouts;\n\n    /* Modifier to check project state before some request */\n    modifier inState(ProjectState _state) {\n        require(state == _state, \"The project goal amount is already reached\");\n        _;\n    }\n\n    /* Event while receiving funds */\n    event ReceivedFunding(\n        address investor,\n        uint256 amount,\n        uint256 currentTotal\n    );\n\n    /* Project constructor */\n    constructor(\n        ITRC20 token,\n        address payable creator,\n        uint256 projectRef,\n        uint256 projectGoalAmount,\n        string memory projectTitle\n    ) {\n        trxToken = token;\n        projectCreator = creator;\n        goalAmount = projectGoalAmount;\n        currentBalance = 0;\n        ref = projectRef;\n        title = projectTitle;\n    }\n\n    /* \n    *   Create and append a cashOut in cashouts array\n    */\n    function cashOut(string calldata cashOutDate, address receiverAddress, string calldata sendingReason, uint256 amount)\n        external\n        returns (bool result)\n    {\n        require(msg.sender == projectCreator, \"Only project creator can make a cashout\"); /* Only project creator can make a cashout */\n        require(amount <= currentBalance, \"You can remove more than current balance\"); /* User can remove all or a part of the project balance */\n\n        if (trxToken.transfer(payable(receiverAddress), amount)) {\n            currentBalance = currentBalance.sub(amount);\n            cashouts.push(CashOut(cashOutDate, receiverAddress, sendingReason, amount));\n            return true;\n        }\n\n        return false;\n    }\n\n    /* \n    *   Create and append a cashIn in cashins array\n    */\n    function cashIn(string calldata cashInDate, address senderAddress, string calldata receivingReason, uint256 amount)\n        external\n        returns (bool result)\n    {\n        require(msg.sender == projectCreator);\n        require(amount > 0);\n        \n        currentBalance = currentBalance.add(amount);\n        cashins.push(CashIn(cashInDate, senderAddress, receivingReason, amount));\n        emit ReceivedFunding(msg.sender, amount, currentBalance);\n        return true;\n    }\n\n    /* Get all project cashins */\n    function getCashIns() external view returns (CashIn[] memory) {\n        return cashins;\n    }\n\n    /* Get all project cashout */\n    function getCashOuts() external view returns (CashOut[] memory) {\n        return cashouts;\n    }\n\n    /* Curent project amount */\n    function getCurrentbalance() public view returns (uint256) {\n        return currentBalance;\n    }\n\n    /* Get goal amount of the project */\n    function getGoalBalance() public view returns (uint256) {\n        return goalAmount;\n    }\n\n    /* Get project reference number */\n    function getReference() public view returns (uint256) {\n        return ref;\n    }\n\n    /* \n    *   Set Project reference number\n    *   Only the project creator can make this request\n    */\n    function setReference(uint256 referenceProject) external {\n        require(msg.sender == projectCreator);\n\n        ref = referenceProject;\n    }\n\n    /* get The project title */\n    function getTitle() public view returns (string memory) {\n        return title;\n    }\n\n    /* \n    *   Set Project title\n    *   Only the project creator can make this request\n    */\n    function setTitle(string calldata _title) external {\n        require(msg.sender == projectCreator);\n        title = _title;\n    }\n\n    /* \n    *   Get Project contributions\n    *   Return all investments, the current project amount and the goal amount\n    */\n    function getContributions() external view returns (Investment[] memory invests, uint256 currentAmount, uint256 goal) {\n        return (investments, currentBalance, goalAmount);\n    }\n\n    /* \n    *   Invest to a project\n    *   The request takes effect only when the project state is Fundraising\n    *   and the new currentBalance is less than or equal to goalAmount\n    */\n    function invest(\n        string calldata investDate,\n        uint256 amount,\n        string calldata emailAddress\n    ) external payable inState(ProjectState.Fundraising) returns(bool) {\n        require(\n            (currentBalance + amount) <= goalAmount,\n            \"The amount is too big !\"\n        );\n        trxToken.transferFrom(msg.sender, address(this), msg.value);\n\n        investments.push(Investment(investDate, emailAddress, msg.sender, amount));\n        currentBalance = currentBalance.add(amount);\n\n        checkIfComplete();\n        emit ReceivedFunding(msg.sender, amount, currentBalance);\n        return true;\n    }\n\n    /* \n    *   Add part to a project (The same user could add it's investment)\n    *   The request takes effect only when the project state is Fundraising,\n    *   The current address already make and investment\n    *   and the new currentBalance is less than or equal to goalAmount\n    */\n    function addPart(uint256 amount, address oldAddress, bool changeAddress)\n        external\n        payable\n        inState(ProjectState.Fundraising)\n        returns(bool)\n    {\n        require(\n            (currentBalance + amount) <= goalAmount,\n            \"The amount is too big !\"\n        );\n        Investment[] memory invests = investments;\n        bool find = false;\n        uint256 pos;\n\n        for (uint256 i = 0; i < invests.length; i++) {\n            if ((invests[i].investorAddress == oldAddress)) {\n                find = true;\n                pos = i;\n                break;\n            }\n        }\n\n        if (find) {\n            trxToken.transferFrom(msg.sender, address(this), amount);\n            investments[pos].amount = investments[pos].amount.add(amount);\n            currentBalance = currentBalance.add(amount);\n\n            /* Check if user decide to set this address to default */\n            if(changeAddress) {\n                investments[pos].investorAddress = msg.sender;\n            }\n\n            checkIfComplete();\n            emit ReceivedFunding(msg.sender, amount, currentBalance);\n            return true;\n        }\n        return false;\n    }\n\n    /*\n    *   Check if the goalAmount is reached and change the project state\n    */\n    function checkIfComplete() public {\n        if(currentBalance >= goalAmount) {\n            state = ProjectState.Ready;\n        }\n    }\n\n    /* \n    *   Set Project state\n    *   Only project creator can make this request\n    *   By Default : \n    *   0 => Fundraising; 1 => Ready and 2 => Closed\n    */\n    function setState(uint256 stateNumber) external {\n        require(msg.sender == projectCreator);\n        if (stateNumber == 0) {\n            state = ProjectState.Fundraising;\n        } else if (stateNumber == 1) {\n            state = ProjectState.Ready;\n        } else {\n            state = ProjectState.Closed;\n        }\n    }\n\n    /*\n    *   Get all Project's details\n    */\n    function getDetails()\n        public\n        view\n        returns (\n            address payable creator,\n            uint256 projectRef,\n            string memory projectTitle,\n            ProjectState currentState,\n            uint256 projectGoalAmount,\n            uint256 currentAmount,\n            Investment[] memory investmentss,\n            CashIn[] memory cashinss,\n            CashOut[] memory cashoutss\n        )\n    {\n        creator = projectCreator;\n        projectRef = ref;\n        projectTitle = title;\n        currentState = state;\n        projectGoalAmount = goalAmount;\n        currentAmount = currentBalance;\n        investmentss = investments;\n        cashinss = cashins;\n        cashoutss = cashouts;\n    }\n\n    /*\n    *  Transfert money to investor address\n    *  this method is called by a scheduler who takes all the project\n    *   investments and send them their income  \n    *   Only project creator can make this request \n    */\n    function sendIncome(address investorAddress, uint256 amount)\n        external\n        returns (bool result)\n    {\n        require(\n            msg.sender == projectCreator,\n            \"You are not allowed to send money !\"\n        );\n        require(currentBalance > 0, \"No more money\");\n\n        if (trxToken.transfer(investorAddress, amount)) {\n            currentBalance = currentBalance.sub(amount);\n            return true;\n        }\n\n        return false;\n    }\n}",
  "sourcePath": "/home/flashelperz/Documents/Code/Web/Solidity/tron-hackathon/smart-contract/contracts/Project.sol",
  "compiler": {
    "name": "solc",
    "version": "0.8.6+commit.0e36fba0.mod.Emscripten.clang"
  },
  "schemaVersion": "2.0.1",
  "updatedAt": "2022-07-05T15:34:31.684Z"
}